:020000040800F2
:1000000000000320B94D0008054400080944000819
:100010000D440008114400081544000800000000C9
:10002000000000000000000000000000194400086B
:100030001D44000800000000214400082544000879
:10004000094E0008094E0008094E0008094E000834
:10005000094E0008094E0008094E0008094E000824
:10006000094E0008094E0008094E0008094E000814
:10007000094E0008094E0008094E0008094E000804
:10008000094E0008094E0008094E0008094E0008F4
:100090002944000835440008094E0008094E0008AC
:1000A000094E0008094E0008094E0008094E0008D4
:1000B000094E0008094E0008094E0008094E0008C4
:1000C000094E0008094E0008094E0008094E0008B4
:1000D000094E000841440008094E0008094E000876
:1000E000094E0008094E0008094E0008094E000894
:1000F000094E000855440008094E0008094E000842
:10010000094E000861440008094E0008094E000825
:10011000094E0008094E0008094E0008094E000863
:10012000094E0008094E00086D440008094E0008F9
:10013000094E0008094E0008094E0008094E000843
:10014000094E0008094E0008094E0008094E000833
:10015000094E0008094E0008094E000879440008BD
:10016000094E0008094E0008094E0008094E000813
:10017000094E0008094E0008094E00080000000062
:10018000094E0008094E0008094E0008094E0008F3
:10019000094E0008094E0008094E0008094E0008E3
:0C01A0000000000000000000094E0008F4
:1001B00053B94AB9002908BF00281CBF4FF0FF31CE
:1001C0004FF0FF3000F00CB8ADF1080C6DE904CE33
:1001D00004F040FEDDF804E0DDE9022304B07047DE
:1001E000704700BF10B5054C237833B9044B13B1E9
:1001F0000448AFF300800123237010BD10000020DD
:10020000000000001051000808B5034B1BB1034962
:100210000348AFF3008008BD000000001400002078
:100220001051000808B50B4B1A6842F400721A60AE
:100230001A6842F480621A601A6842F480721A6086
:10024000032000F071FB0F2004F088F804F06AF836
:10025000002008BD003C0240034A044B11681B7893
:100260000B441360704700BF2C00002000000020EA
:10027000014B1868704700BF2C00002038B50446B9
:10028000FFF7F6FF631C054602D0044B1B781C44A5
:10029000FFF7EEFF401BA042FAD338BD000000205C
:1002A00000287BD038B590F820300446002B72D05F
:1002B0002268136843F001031360FFF7D9FF054676
:1002C00004E0FFF7D5FF401B0A285BD823685A6873
:1002D000D107F6D51A6822F002021A60FFF7C8FFAC
:1002E000054604E0FFF7C4FF401B0A284AD82368EC
:1002F0005A689207F6D4227E012A1A680CBF42F08F
:10030000800222F080021A60627E012A1A680CBF05
:1003100042F0400222F040021A60A27E012A1A68CE
:100320000CBF42F0200222F020021A60E27E012A75
:100330001A680CBF22F0100242F010021A60227FED
:10034000012A1A680CBF42F0080222F008021A6063
:10035000627F012A1A680CBF42F0040222F00402F4
:100360001A60D4E90220216902430A436069616886
:10037000024301390A4300200121DA61606284F8F6
:10038000201038BD636A052243F40033636284F8A9
:100390002020012038BD03F043FD89E7012070478C
:1003A00090F82020013A012A06D9426A034642F415
:1003B000802201205A627047404BD3F8002201206E
:1003C000024330B4C3F80022D3F8002222F47C5256
:1003D000C3F80022D3F800224C6A42EA0422C3F890
:1003E00000224A6902F01F04A040D3F81C4224EA0C
:1003F0000004C3F81C42CD69C443002D45D1D3F895
:100400000C522540C3F80C52D200CD688B8802F103
:10041000804202F5C84243EA0543C2F840328D6883
:100420000B8843EA0543C2F844328B69234A33BB45
:10043000D2F804322340C2F804320B69C3B91F4B0F
:10044000D3F814221440C3F814420B6A012B05D1CF
:100450001A4AD2F81C320343C2F81C32174AD2F8A7
:10046000003223F00103002030BCC2F80032704794
:10047000124AD2F814320343C2F81432E5E7D2F834
:1004800004320343C2F80432D7E7012DCDD1D3F8AB
:100490000C520543C3F80C52D2000D688B8802F150
:1004A000804202F5C84243EA0543C2F840328D68F3
:1004B0008B8943EA0543C2F84432B6E70064004042
:1004C00038B590F82030012B044605D0436A43F438
:1004D00000234362012038BD0268022380F82030E7
:1004E000136823F001031360FFF7C2FE054604E022
:1004F000FFF7BEFE431B0A2B07D823685B6813F087
:100500000103F5D16362184638BD636A052243F4DE
:100510000033636284F82020DCE700BF90F820C03D
:100520000CF1FF3CBCF1010F65D870B5046841B90E
:10053000E568AE0708D1436A43F400134362012023
:1005400070BD2569AD07F6D004EB011C4FEA011E12
:10055000DCF8B05105F004059560002D51D0DCF8B1
:10056000B051ED085560DCF8B05105F00205D560DA
:10057000DCF8B451DCF8B46105F00F051561744482
:10058000DCF8B451C6F3072696612D0CD4F8B86197
:1005900055611E7002687244D2F8B821120A5A706E
:1005A00002687244D2F8B821120C9A700268724440
:1005B000D2F8B821120EDA7002687244D2F8BC2167
:1005C0001A7102687244D2F8BC21120A5A71026888
:1005D0007244D2F8BC21120C9A7102687244D2F8AB
:1005E000BC21120EDA71026881B9D36843F020038E
:1005F000D360002070BD436A43F48023436201202E
:100600007047DCF8B0516D0D1560ACE7136943F02D
:1006100020031361EDE700BF90F82020013A012A82
:10062000034605D9426A42F4802201205A6270478B
:10063000026853690B43002053617047704700BF45
:10064000704700BF704700BF704700BF704700BFD2
:10065000704700BF704700BF704700BF704700BFC2
:10066000704700BF704700BF704700BF2DE9F04FD3
:1006700003685C69D3F804809F68D3F80CB0D3F8A2
:1006800010A0D3F8189014F0010683B0054625D0C9
:10069000FA0700F1A2804FF400564FF48040002189
:1006A000FB0540F1AF802B684FF480729A60BA0569
:1006B00000F1A3807B0503D43E0540F1218106466D
:1006C000F9030BD52B684FF480329A60BA0300F11E
:1006D000F9807B0340F1EA8046F40046210702D509
:1006E0001BF0100F73D1620703D51BF0080F40F009
:1006F000A880A30704D52B68DB689F0740F08B8098
:10070000600602D51AF0100F5BD1A10602D51AF0CF
:10071000080F79D1E20603D52B681B699B077ED1B0
:10072000A70302D518F0100F7DD1E00302D518F011
:10073000080F7FD121043FD518F0040F2B6839D062
:10074000E20504D519F0010F18BF46F00106A70510
:100750007ED4610504F4006228D519F0040F25D079
:1007600046F00406002A00F0838019F070097FD05B
:10077000B9F1400F00F0CF807DD8B9F1200F00F023
:10078000B380B9F1300F40F085809A69042122F0DE
:1007900070029A6146F0200659606B6A334328461E
:1007A0006B62FFF761FF03B0BDE8F08F12B119F083
:1007B0007009DDD104225A60002EEED103B0BDE8ED
:1007C000F08F2B68102246F480661A619DE72B6833
:1007D000102246F40076DA6085E70122BE079A60AF
:1007E00043D4790767D43A0740F187804FF44056E5
:1007F0004FF4A0404FF4805152E728460191FFF793
:100800001FFF01990E465BE72B6808221A612846F4
:10081000FFF724FF7EE7284603F02EFF70E7284607
:10082000FFF71AFF7CE72B6810225A602846FFF773
:1008300017FF7AE72B6808225A602846FFF712FF55
:1008400078E72B680822DA602846FFF703FF50E7B5
:1008500019F0020F3FF47DAF600546F0020604F484
:1008600000623FF57AAF1AB17FE7FFF7E7FE12E7C4
:1008700004225A6091E7B9F1500F27D0B9F1600F07
:100880002DD19A69042122F070029A6146F4807693
:10089000596082E7B9F1100F21D19A69042122F041
:1008A00070029A6146F00806596076E738032ED543
:1008B00046F4803612E74FF420564FF490404FF440
:1008C0000061EDE62846FFF7BDFE07E79A690421BF
:1008D00022F070029A6146F0800659605DE79A69DD
:1008E00022F070029A6165E79A69042122F0700291
:1008F0009A6146F0100659604FE7FFF7A5FECAE679
:1009000028460191FFF7A2FE01990E46D8E6284637
:10091000FFF79EFEE2E69A69042122F070029A61D6
:1009200046F04006596038E70749CA6803024FF6A7
:10093000FF0003F4E0630240134343F0BF6343F45A
:100940000033CB60704700BF00ED00E01B4BDB685D
:10095000C3F3022300B5C3F1070EBEF1040F03F188
:10096000040C28BF4FF0040EBCF1060F1CD9A3F1F4
:10097000030C4FF0FF3303FA0CF322EA03024FF0AB
:10098000FF3303FA0EF321EA030303FA0CF31343D4
:100990001B010028DBB20ADB00F1604000F561407A
:1009A00080F800335DF804FB00229446E7E7044A30
:1009B00000F00F00024413765DF804FB00ED00E048
:1009C000FCEC00E0002807DB4109044A00F01F00AE
:1009D0000123834042F82130704700BF00E100E06E
:1009E00038B50446FFF744FC002C6FD02368002282
:1009F000022184F8351084F834201A6822F00102AC
:100A000005461A6005E0FFF733FC431B052B39D878
:100A100023681A68D107F6D4D4E90120E1680243BB
:100A20000A43D4E90451A0692A430A43E1691D68D5
:100A300002430A4332492940256A2A430A43616A2C
:100A4000042926D01A605A6922F007021143D8B24D
:100A50002C4A59611038A2FB005212092A4923F48A
:100A60007F73895CE16523F003035F2888BF04334B
:100A70003F228A40A36500209A600123606584F8C4
:100A8000353038BD03232022626584F8353018469E
:100A900038BDD4E90B512943114319605969A26A41
:100AA00021F00701114341F00401002DCFD078B1AE
:100AB000B0F5005F16D0022A03D9032AC7D1EA0194
:100AC000C5D540220123626584F83530012038BD48
:100AD000012A03D032F00202B9D1F0E7B5F1C07FAC
:100AE000B5D1EEE7032AB2D801A050F822F000BF3A
:100AF000C30A0008BF0A0008C30A0008DD0A00088C
:100B00003F8010F0ABAAAAAA2851000870B504468D
:100B1000866DFFF7ADFB94F83530022B06D08023AD
:100B20006365002384F83430012070BD23681A689F
:100B300022F016021A605A6922F080025A61226C71
:100B4000054642B31A6822F008021A601A6822F0B9
:100B500001021A6005E0FFF78BFB431B052B10D841
:100B600023681B6813F00103F5D1E16D3F228A4031
:100B7000184601210023B26084F8351084F834301F
:100B800070BD032320226265184684F835300023A7
:100B900084F8343070BDA26C002AD3D1D6E700BFF0
:100BA00090F83530022B03D0802343650120704735
:100BB0000268052380F83530136823F00103002014
:100BC00013607047F0B583B0674A876D16680023DD
:100BD0000193C36D3D6808229A402A42044603D01F
:100BE00001680868400778D401229A402A4203D05D
:100BF0002168496908066AD404229A402A4203D02F
:100C00002168096889075CD410229A402A4203D0DF
:100C100021680868000741D420229A402A4214D053
:100C200021680868C00610D5BA6094F83520052AF6
:100C300063D00B6813F4802F0B687ED0190340F14A
:100C40008980E36B0BB120469847636D23B3636DD6
:100C5000DA071AD522684549052384F83530136828
:100C6000A1FB061623F00103B60A136002E0136825
:100C7000DB0704D5019B0133B3420193F7D901226D
:100C8000002384F8352084F83430E36C23B1204607
:100C900003B0BDE8F040184703B0F0BDBA600A6881
:100CA00012F4802F0A6822D1D20503D40A6822F0F8
:100CB00008020A60226C002AAED020469047E36DFD
:100CC000AAE7BA60626D42F0040262659CE7BA600E
:100CD000626D42F0020262658EE7086820F004004F
:100CE0000860BA60626D42F0010262657CE7110340
:100CF000E0D5A26C002AE0D18EE70A6822F0160245
:100D00000A604A6922F080024A61226C3AB30A689A
:100D100022F008020A603F2202FA03F3216DBB6051
:100D20000122002384F8352084F834300029B3D020
:100D3000204603B0BDE8F040084713F4807380D12B
:100D40000A6822F010020A60012284F8352084F833
:100D5000343076E7636C002B7FF475AF75E7A26CD7
:100D6000002AD4D1D7E700BF0C000020B5814E1B6C
:100D70002DE9F04F00230C68DFF844A285B04FF056
:100D8000010B894603E00133102B00F09C800BFA25
:100D900003F202EA0408A243F5D1D9F8041001F0E5
:100DA00003024FEA430C0325571E05FA0CF5012FE9
:100DB0006FEA050540F28A80032A40F0C080076888
:100DC00002FA0CF23D402A4311F4403F0260DAD0AF
:100DD00000220392DAF8442042F48042CAF8442008
:100DE000DAF8442002F480420392039A23F00302CB
:100DF00002F1804203F003070F2602F59C32BF0088
:100E000006FA07FC6B4E9568B04225EA0C0531D016
:100E100006F58066B04200F09D80674EB04200F05B
:100E20009F80DFF8A0C1604500F0A080DFF898C186
:100E3000604500F0A180DFF894C1604500F0A88013
:100E4000DFF88CC1604500F0A980DFF888C16045FB
:100E500000F09880DFF880C1604500F0A580DFF8E1
:100E60007CC160450CBF4FF0090C4FF00A0C0CFA26
:100E700007F73D439560514A9268CE026FEA080534
:100E80004E4E54BF2A4048EA0202B260F2684B4E0E
:100E90008F0254BF2A4048EA0202F26072688E0351
:100EA000464E54BF2A4048EA020272603268C903C3
:100EB00003F10103414954BF2A4048EA0202102BC2
:100EC0000A607FF464AF05B0BDE8F08F876807EA79
:100ED000050ED9F80C7007FA0CF747EA0E07876081
:100EE000476827EA080EC1F300179F4047EA0E073C
:100EF0004760C76807EA050ED9F8087007FA0CF7CB
:100F000047EA0E07022AC7607FF459AFDF0800EBFB
:100F1000870701973E6AD9F81070009603F0070E14
:100F20004FEA8E0E0F2607FA0EF706FA0EFE009E07
:100F300026EA0E0E019E47EA0E0737623FE7C768B2
:100F400007EA050ED9F8087007FA0CF747EA0E070A
:100F5000C76034E74FF0010C0CFA07F73D4389E70F
:100F60004FF0020C0CFA07F73D4383E74FF0030CF8
:100F70000CFA07F73D437DE74FF0040C0CFA07F736
:100F80003D4377E74FF0070C0CFA07F73D4371E755
:100F90004FF0050C0CFA07F73D436BE74FF0060CDA
:100FA0000CFA07F73D4365E74FF0080C0CFA07F71A
:100FB0003D435FE70000024000080240003C014062
:100FC00000380240000C02400010024000140240B1
:100FD00000180240001C0240002002400024024091
:100FE0000369194214BF01200020704702B90904A7
:100FF00081617047002800F0D8812DE9F041036835
:10100000DD0782B004462FD59D498A6802F00C02A4
:10101000042A00F0EC808A6802F00C02082A00F032
:10102000E2806368B3F5803F00F0EB80B3F5A02F5A
:1010300000F07381924D2A6822F480322A602A6877
:1010400022F480222A60002B40F0E080FFF710F9A4
:10105000064605E0FFF70CF9801B642800F20081CA
:101060002B689F03F6D423689D0728D5844A91688E
:1010700011F00C0F00F09B80916801F00C01082921
:1010800000F09180E368002B00F00C817D4B7C4EDA
:1010900001221A60FFF7ECF8054605E0FFF7E8F8D3
:1010A000401B022800F2DC8033689F07F6D53368C6
:1010B000226923F0F80343EAC203336023681A0766
:1010C0005CD45D073AD56E4A136C13F0805340F040
:1010D00088800193136C43F080531364136C03F006
:1010E00080530193019B0125674E3368D80540F179
:1010F000A780A368012B00F0B780052B00F01D81AD
:101100005F4E326F22F001023267326F22F004022A
:101110003267002B40F0AD80FFF7AAF841F2883823
:10112000074605E0FFF7A4F8C01B404500F2988091
:10113000336F9B07F6D4002D40F0F980A369CBB143
:101140004F4DAA6802F00C02082A00F0BC80022B66
:101150004C4B4FF000021A6600F0F980FFF788F858
:10116000044604E0FFF784F8001B022878D82B68B7
:101170009B01F7D4002002B0BDE8F0816369FBB1A8
:10118000404B3F4E0122C3F8802EFFF771F8054611
:1011900004E0FFF76DF8401B022861D8736F9B07CE
:1011A000F7D523688DE7526851023FF56BAF344A9B
:1011B0001268920738D5E268012A35D00120DAE7B3
:1011C000304A2F4EC2F8803EFFF752F8054604E041
:1011D000FFF74EF8401B022842D8736F9F07F7D4E1
:1011E000DFE7002580E74A6851027FF51AAF244AFD
:1011F000126892037FF538AF6268002A7FF434AF3B
:10120000DCE71F4A136843F480331360FFF730F8BC
:101210001B4E054604E0FFF72BF8401B64281FD83F
:1012200033689B03F7D51EE7154920690A6822F049
:10123000F80242EAC0020A601A077FF542AF9DE752
:10124000336843F480733360FFF712F8074633685E
:10125000D9053FF54EAFFFF70BF8C01B0228F6D9B2
:10126000032002B0BDE8F081054A136F43F001038B
:101270001367FEF7FDFF024F064641F288380AE089
:10128000003802400000474200700040FEF7F0FFC7
:10129000801B4045E4D83B6F9A07F7D5002D3FF4FB
:1012A0004DAF44E0424A434E1360FEF7E1FF05466E
:1012B00004E0FEF7DDFF401B0228D1D83368990710
:1012C000F7D42368FBE6012B3FF478AF6B68E26943
:1012D00003F4800191427FF471AF226A03F03F0171
:1012E00091427FF46BAF616A47F6C0721A40B2EB6D
:1012F000811F7FF463AFA26A520803F44031013AC0
:10130000B1EB024F7FF45AAFE26A03F07063B3EBC4
:10131000026F14BF012000202DE7264B1A6842F40B
:1013200080221A601A6842F480321A606EE7214AFD
:10133000136C23F08053136400E71E4B1A6F42F0C6
:1013400004021A671A6F42F001021A6791E7FEF76A
:101350008FFF064605E0FEF78BFF801B02283FF655
:101360007FAF2B689901F6D4D4E90731626A0B4349
:1013700043EA8213D4E90A21520843EA0163013A9D
:101380000B4943EA024301226B600A66FEF770FFD5
:10139000084D044605E0FEF76BFF001B02283FF6F0
:1013A0005FAF2B689A01F6D5E4E60120704700BFD5
:1013B0000000474200380240164908B58B6803F028
:1013C0000C03042B1BD0082B17D14A684B684968C3
:1013D00013F4800302F03F0213D10F48C1F38811C8
:1013E000A1FB0001FEF7E4FE0A4B5B68C3F3014377
:1013F00001335B00B0FBF3F008BD074808BD0748A8
:1014000008BD0648C1F388110023A1FB0001FEF7C7
:10141000CFFEE9E7003802400024F400001BB700CB
:10142000002800F08780484A136803F00F038B42BE
:101430002DE9F0410D46044609D2CBB21370136872
:1014400003F00F038B4202D00120BDE8F081236836
:10145000980714D5590704D53C498A6842F4E052EC
:101460008A601A0704D539498A6842F460428A6062
:101470003649A0688A6822F0F00202438A60DF07DA
:1014800021D56268012A57D0931E012B2F4B1B6870
:101490004DD99907D8D52D4EB36823F003031343D4
:1014A000B360FEF7E5FE41F28838074604E0FEF738
:1014B000DFFEC01B404544D8B368626803F00C03EC
:1014C000B3EB820FF3D1204A136803F00F03AB4252
:1014D00006D9EBB21370136803F00F03AB42B3D11C
:1014E00023685A0706D51949E0688A6822F4E05251
:1014F00002438A601B0707D5144A2169936823F4C5
:10150000604343EAC1039360FFF756FF0F4A104C54
:1015100092681049C2F303120346A25C0E48D340FE
:1015200000680B6002F01AFF0020BDE8F08198010E
:10153000B1D489E701207047044B1B689E03AAD4ED
:1015400082E7032081E700BF003C024000380240F0
:101550004C5100080C00002004000020044B0549F9
:101560009B68054A0868C3F38223D35CD840704760
:10157000003802400C00002044510008044B05498B
:101580009B68054A0868C3F34233D35CD840704770
:10159000003802400C000020445100080E4B0F227E
:1015A00002609A6802F0030242609A6802F0F00258
:1015B00082609A6802F4E052C2609B68DB0810B453
:1015C00003F4E053054C036123685DF8044B03F01A
:1015D0000F030B60704700BF00380240003C024020
:1015E000F0B589B005460F46FEF742FE00230821FC
:1015F00006462868CDE9003301F030FB044610B1FF
:10160000204609B0F0BD296D2868090401F0DCFF0F
:1016100004460028F4D14FF0FF3202920821302214
:10162000CDE9031201230222069002A9286805923F
:10163000079301F0FDFA286802F03CF9044640B136
:10164000DEE7436B990415D5FEF712FE831B0133C9
:1016500024D02868436B13F02A0F0BD1436B9B02F5
:10166000EFD501F0CFFA08AB03EB8403013443F864
:10167000200CE9E7436B1A0716D4436B9B0716D47B
:10168000446B14F020040CD1DDE9003240F23A51F1
:1016900012BA1BBA8163C7E90023B1E74FF00044D7
:1016A000AEE720248463ABE708248463A8E7022420
:1016B0008463A5E72DE9F04F87B00D46DDF8408043
:1016C000044691461F46FEF7D3FD002D66D094F8E0
:1016D0003430012B53D1E26D09EB07010023914215
:1016E000A36360D806462068626C032184F8341036
:1016F000C3624FF0FF3300937B0201934FF0020A65
:101700009023012ACDE9023A4FF0010B4FF000037C
:10171000694618BF4FEA4929CDE9043B01F088FA30
:101720005F4534D92068C4F830A0494601F0D0FBA9
:10173000226800283CD1DDF804A040F22A3905E0F7
:10174000FEF796FD801B404572D22268516B11EA6C
:10175000090F134637D1526B1104F1D5BAF1000FBE
:10176000EED005F1200B00E02368184601F04AFA9C
:1017700045F8040B5D45F7D1AAF1200AE0E7A36B19
:1017800043F00053A363012007B0BDE8F08F206849
:10179000C4F830B0494601F0FDFAC9E7A36B43F045
:1017A0000063A363EFE7A36B43F00073A363EAE76F
:1017B0003D4B9363A36B012103430022A36384F891
:1017C00034102263DFE7526BD2050CD5012F0AD902
:1017D000626C032A07D0184601F052FD236810B14D
:1017E000314A9A63E6E75A6B12F0080239D1596B15
:1017F00011F002012AD15A6B90063ED4AA440BE0A4
:1018000055450DD001F0FEF945F8040BFEF730FD0B
:10181000801B404523683BD25A6B92021846EFD496
:1018200040F23A5101229963002084F83420ABE75A
:1018300023681D4A9A63A36B012143F000430022F1
:10184000A363032084F8341022639DE7164999634B
:10185000A36B012143F00203A36384F834102263D5
:1018600091E7114A9A63A36B012143F00803002218
:10187000A36384F83410226385E70B4A9A63A36B51
:10188000012243F02003A36384F8342021637AE724
:10189000054A9A63A36B012143F000430022A3632E
:1018A00084F8341022636EE7FF0540002DE9F04F05
:1018B00089B00D46DDF84880044691461F46FEF784
:1018C000D7FC002D63D094F83430012B51D1E26D58
:1018D00009EB070100239142A3635DD80646206807
:1018E000626C032184F83410C3620023CDE9053310
:1018F0004FF0FF3302937B0203939023012A04935A
:1019000002A94FF0010318BF4FEA4929079301F0DC
:101910008FF9012F494634D920232068236301F031
:1019200011FC226800283CD1DDF80CA040F21A39E5
:1019300005E0FEF79DFC801B404561D22268536B99
:1019400013EA090F104637D1536B5A04F1D5BAF197
:10195000000FEED005F1200B00E0206855F8043BA5
:10196000019301A901F052F95D45F6D1AAF1200ACF
:10197000DFE7A36B43F00053A363012009B0BDE888
:10198000F08F10232068236301F040FBC9E7A36BAD
:1019900043F00063A363F0E7A36B43F00073A3631A
:1019A000EBE72F4B9363A36B012103430022A36357
:1019B00084F834102263E0E7536BDB0509D5012F6F
:1019C00007D9636C032B04D001F05AFC002842D1E4
:1019D0002068436B13F0080329D1426B12F0020216
:1019E0001AD1436B13F010032DD01D4B8363A36BEF
:1019F000012143F01003A36384F834102263BCE791
:101A00002368174A9A63A16BA1630122002384F81B
:101A1000342003202363B1E7114A8263A26B0121C2
:101A200042F00202A26384F834102363A5E70C4B52
:101A30008363A36B012143F008030022A36384F8AE
:101A40003410226399E740F23A510122816318462B
:101A500084F8342092E72368014A9A63A3E700BF21
:101A6000FF054000704700BF38B5846B216D2068CA
:101A700040F23A538363090402F086F8054680B1C8
:101A8000A36B012103430022A36384F83410226373
:101A9000A36B204613B902F06FF938BDFFF7E2FFE0
:101AA00038BD2068294601F0BFF8C0F34320012368
:101AB0000538984284F834302563E9D8206801F06D
:101AC000DFFBA36B0343A363E2E700BF2DE9F04113
:101AD00004460068256B436B1A0482B01DD52B07A2
:101AE00000F1C080436BDB056BD54FF480738363DB
:101AF000C36B23F4434323F03A03C363C36A23F065
:101B00000103C362290605D5AA0600F1EC80AB07E4
:101B100000F0BB8002B0BDE8F081436BDF0523D548
:101B20004FF480738363C36B23F4434323F03A037E
:101B3000C363C36A2E0723F00103C362E2D515F025
:101B4000220F40F0B08040F23A5383630122002319
:101B500084F8342020462363AC0700F09F8002F015
:101B600017F902B0BDE8F081436B5F042AD52E0758
:101B700028D5666A002ECDD0276A07F1040807F140
:101B8000240500E0206818F8043C019318F8032CA1
:101B900043EA0223019318F8022C43EA024301931B
:101BA00018F8012C01A943EA026308F10408019323
:101BB00001F02CF8A845E5D12037203EC4E908768D
:101BC000A8E7436B426B40F23A231A42A2D0436B20
:101BD000990703D5A36B43F00203A363436B1A0772
:101BE00003D5A36B43F00803A363436B9B0603D5A4
:101BF000A36B43F02003A363436BDF0603D5A36B02
:101C000043F01003A363436B9E0503D5A36B43F01E
:101C10000803A36340F23A738363C36B23F44E73E8
:101C200023F00203C36301F02BFBA36B290743EAF4
:101C30000003A3633DD42A067FF56CAF15F0300F87
:101C400047D115F003055BD0206C324B0365FEF7DE
:101C5000A7FF00283FF45EAF206C02B0BDE8F04162
:101C6000FFF702BFD4E90A57002F3FF453AF05F145
:101C7000200600E0206800F0C5FF45F8040BAE42E6
:101C8000F8D1203FC4E90A6744E72268D36A0121FA
:101C900023F00803D362204684F8341002F072F86F
:101CA00002B0BDE8F08101F0EBFA034650B92068BC
:101CB00049E70122002384F8342020462363FFF7FC
:101CC000D1FE27E7A26B13432046A363FFF7CAFEAA
:101CD000EDE7E06B104B0365FEF762FF00283FF471
:101CE00019AFE06BB9E701F0CBFA034600283FF4E7
:101CF0000EAFA26B13432046A363FFF7B3FE06E7C4
:101D00000123A563204684F83430256302F034F8BB
:101D100000E700BF1D1D0008691A000838B5846B74
:101D2000216D206840F23A538363090401F02CFFCF
:101D3000054680B1A36B012103430022A36384F80D
:101D400034102263A36B204613B902F015F838BD96
:101D5000FFF788FE38BD2068294600F065FFC0F314
:101D6000432001230538984284F834302563E9D8AC
:101D7000206801F085FAA36B1843A063E2E700BF77
:101D8000426E10B40346940FC2F383600C70487027
:101D9000C2F30164C2F307408C70C870C2F307201D
:101DA000D2B208714A719A6E140DCC80C2F303440A
:101DB0000C72C2F3C0344C72C2F380348C72C2F322
:101DC0004034CC720020C2F300340C734873586C5A
:101DD00000286FD1D86E40F6FC7404EA820242EA11
:101DE0009072C0F3C2640A610C75C0F34252C0F332
:101DF00002644C758A75C0F38244C0F3C232CC755C
:101E00000A760C690A7E02F007020232013494401D
:101E10005C6591F808C001220CF00F0C02FA0CF27C
:101E20009A65520A04FB02F2DA65C0F380324FF47D
:101E300000741C664A76C0F3C61200F07F008A76F2
:101E4000C8761B6FDC0FC3F341720C774A77C3F37C
:101E50008264C3F383528C770020CA77C3F3405463
:101E6000C3F3004281F8204081F82100C3F3C0345D
:101E700081F82220C3F3803281F8234081F82420A6
:101E8000C3F34034C3F3003281F8254081F82620A3
:101E9000C3F38124C3F3012281F82740C3F346032F
:101EA00081F82820012281F8293081F82A205DF864
:101EB000044B704701280FD1D86E120402F47C1233
:101EC00042EA10420A610A69013292024FF4007438
:101ED000C3E916425A65A8E71A68064991639A6BE6
:101EE000012142F080529A6383F8341008465DF86D
:101EF000044B7047FF054000F0B5002299B07623EF
:101F0000CDE90A230023099309AA054607CA8DE8EB
:101F10000700CDE90633089306AB0ECB286800F026
:101F200055FE18B10124204619B0F0BD794E044683
:101F300001272868C6F8A04000F06EFE0220C6F80F
:101F4000A070FEF79BF92868059401F0DBFA0446BF
:101F500058B9286801F0FCFA70B9AF64286800210C
:101F600001F032FB90B14FF08054012385F83430FA
:101F7000AB6B2343AB63D5E72868AC6401F0C2FACE
:101F8000002840F0C280AB6C012BE7D0059B4FF6D8
:101F9000FE76B3421DD8604F12E0286801F0B2FB14
:101FA00021460028DFD1286800F03EFE059B013362
:101FB0000593059BB34204464FEAD07209D842B953
:101FC0000021286801F000FB394604460028E4D0CF
:101FD000CBE7059A4FF6FE739A4200F29880C4F35D
:101FE0008074012328686C64ADF8123000F018FE8C
:101FF000002800F084806B6C2868032B2FD104210B
:1020000000F012FE000DE8640DA92846FFF7B8FEA7
:102010000446002876D12A6D28681204234601F070
:10202000D3F9F8B92A462B1D52F8106B07CA8DE870
:10203000070030460ECB00F0C9FD28684FF4007150
:1020400000F00CFE00283FF46EAF2B68334A9A6311
:10205000AB6B01220343AB6385F8342062E701F0E8
:10206000C9FC30B1012385F83430AB6B0343AB635B
:1020700058E70146286800F0D7FD034604216B6746
:10208000286800F0D1FD0346AB670821286800F0FE
:10209000CBFD0C21E867286800F0C6FD6B6CC5F825
:1020A0008000032B2868AAD00DF1120101F016FD63
:1020B0000028D7D16B6C2868032BA0D0BDF8121074
:1020C0002965090401F0CEFC0028CBD1014628681F
:1020D00000F0AAFD034604216B66286800F0A4FD09
:1020E0000346AB660821286800F09EFD0C21E866D7
:1020F000286800F099FD03462B6728687FE74FF0BA
:102100008060AFE74FF08050ACE704462DE74FF01A
:1021100080742AE700802542000010C1FF054000BE
:10212000C8B110B590F83430044603F0FF0273B123
:10213000032384F834302046FFF7DEFE28B901235C
:10214000A063206384F8343010BD012010BD0277F5
:1021500002F092F8ECE70120704700BFF0B4D0E93C
:1021600011C7D0E91365D0E91542D0E91730C1E9AC
:1021700000C7C1E90265C1E90442C861F0BC0020A2
:102180008B6170470000000070B5426C0323032A86
:1021900080F834308AB0036804460E4625D0B1F585
:1021A000805F22D0B1F5006F5FD000293DD0826BF7
:1021B00042F000628263A56BF5B96169A269079676
:1021C000CDE90812D4E90112CDE90412E2680692C1
:1021D0000AAA12E907008DE8070004AE184696E83F
:1021E0000E0000F0F3FC23680CE0A26B42F080527A
:1021F000A263A56B002DE0D00122314999631546F9
:1022000084F834204FF40071184600F027FD30B1F7
:1022100023682B4A9A63A36B03430125A36301231D
:10222000284684F834300AB070BD002218460023D6
:10223000CDE9042300F0F8FC820135D404A920463E
:10224000FFF7CEF960B9059BDB0330D5216D20681F
:10225000090401F0B9F918B90146206801F08CFAB7
:10226000A26B23680243A263C3E79FED137B18466A
:1022700000218DED047B00F0D7FC800114D404A96B
:102280002046FFF7ADF90028EAD1059B59030ED58A
:10229000216D2068090401F097F90028E0D1206839
:1022A000022101F069FADBE74FF40060D8E74FF054
:1022B0008060D5E7AFF30080000000000000000060
:1022C000FF054000016D10B509040446006801F0E7
:1022D0005BFC014620B1A36B0B430020A36310BD40
:1022E000206800F0A1FCC0F3432010BD704700BF80
:1022F000002800F0868038B590F83D30044603F0A1
:10230000FF02002B78D022683F49022384F83D3039
:102310008A4213685CD0B2F1804F30D0A1F57C4185
:102320008A422CD001F580618A4228D001F5806173
:102330008A4224D001F578418A4249D001F5705192
:102340008A4220D031498A421DD001F580618A42FB
:1023500019D0A1F598318A4215D001F580618A42E1
:1023600011D001F580618A420DD0A5696168E068ED
:1023700023F080032B431360D062916210E0A168C8
:1023800023F070030B432069A16923F440730343D6
:1023900023F08003E0680B4361681360D0629162B0
:1023A0000123536184F8463084F83E3084F83F308E
:1023B00084F8403084F8413084F8423084F8433067
:1023C00084F8443084F8453084F83D30002038BD2E
:1023D000A068216923F07003034323F440730B4387
:1023E000A16923F080030B431360E368D362636841
:1023F000936263691363D3E780F83C20FFF776FFAD
:1024000081E70120704700BF000001400044014007
:1024100090F83D30012B2FD103681849022280F833
:102420003D20DA688B4242F00102DA6019D0B3F144
:10243000804F16D0124A934213D002F58062934225
:102440000FD002F5806293420BD002F5784293429E
:1024500007D002F57052934203D0A2F59432934212
:1024600004D19A6802F00702062A03D01A6842F0E3
:1024700001021A60002070470120704700000140EF
:1024800000040040704700BF704700BF704700BFA6
:10249000704700BF03681A69910710B5044602D55A
:1024A000DA6892075FD41A69500702D5DA685107D3
:1024B00046D41A69120702D5DA6810072ED41A69B1
:1024C000D20602D5DA68D00618D41A69D10702D527
:1024D000DA68D2075DD41A69100602D5DA681106E7
:1024E0005FD41A69520602D5DA68500661D41A69B7
:1024F000910602D5DA68920643D410BD6FF0100140
:10250000082219612277DB6913F4407F204664D0EA
:10251000FFF7BAFF002223682277D6E76FF00801A1
:10252000042219612277DB699907204652D1FFF70F
:10253000A9FF2046FFF7AAFF002223682277BEE703
:102540006FF004010222196122779B6913F4407F26
:1025500020463CD1FFF796FF2046FFF797FF002269
:1025600023682277A5E76FF0020101221961027743
:102570009B699B0725D0FFF787FF002223682277FE
:1025800091E76FF0200220461A61BDE8104000F08C
:102590002BB86FF001021A61204601F0CFFD2368CD
:1025A00099E76FF080021A61204600F01FF8236857
:1025B00097E76FF040021A612046FFF769FF236832
:1025C00095E7FFF75FFF2046FFF760FFD5E7FFF7CE
:1025D0005BFFC4E7FFF758FFAEE7FFF753FF204666
:1025E000FFF754FF96E700BF704700BF704700BF7A
:1025F000002800F0868038B590F83D30044603F09E
:10260000FF02002B78D02368E068242284F83D2064
:10261000DA6822F40052DA601969A26821F44051A4
:1026200001432069196102436069D9680243E06986
:1026300021F4164121F00C0102430A43DA605A6981
:10264000A069314922F4407202438B425A6135D06D
:102650002E4A934232D0FEF781FFE2691921B2F58A
:10266000004FD4E90053A0FB01012AD09A009B0F30
:10267000FDF79EFD264AA2FB00135B09642101FBC6
:10268000130000013230A2FB00201B0103EB5013AA
:10269000AB602B6923F490432B616B6923F02A0311
:1026A0006B61EB680021202243F40053EB6021644E
:1026B00084F83D2084F83E20084638BDFEF75EFFD2
:1026C000CBE7DA184FF000035B41FDF771FD104ACC
:1026D000A2FB00314909642303FB1103DB00323301
:1026E000A2FB0323C3F342121B0902EB011203F402
:1026F000F8731344AB60CCE780F83C2001F026FF70
:1027000081E70120704700BF001001400014014024
:102710001F85EB5190F83E30202B2AD159B352B38C
:1027200090F83C30012B24D010B400230124046322
:1027300080F83C30C285036403698162222182856E
:1027400083B0026880F83E101BB1D36843F48073F5
:10275000D360536943F001035361D36843F020030E
:10276000D360036B012B08D0012003B05DF8044B4C
:1027700070470220704701207047002301931368BF
:10278000019353680193019B02F10C0353E8003F4E
:1027900043F0100302F10C0040E800310029F3D1AE
:1027A0000020E2E7704700BF704700BF704700BFDE
:1027B00008B5806B0023C385C384FFF7F7FF08BD0E
:1027C00083680168826AB3F5805F41D0002B38D0FE
:1027D0004B6803F07F031370826A0132C38D8262FB
:1027E000013B9BB2C385002B31D10268D16821F037
:1027F000200100B5D160D16821F48071D1605169A8
:102800004FF0200C21F00101516180F83EC0016BB6
:10281000012983B025D1036302F10C0353E8003F83
:1028200023F0100302F10C0C4CE800310029F3D125
:102830001368DB061AD4818D01F0C8FF03B05DF880
:1028400004FB0369002BC3D14B68DBB2C3E77047BD
:102850000369002BF8D14B68C3F3080322F8023B4D
:10286000BCE7FFF7A1FF03B05DF804FB0023019371
:102870001368019353680193019BDCE730B503684B
:102880001A68DD68596912F00F0F83B004466ED1E3
:10289000910602D5A90600F19F80216B01290BD07A
:1028A000100602D5290600F1A180520602D568065D
:1028B00000F1BB8003B030BDD006F1D5E906EFD5FD
:1028C000002201921A6801925A680192019A5A698B
:1028D000550640F13481A06B0268526892B2002A1A
:1028E000E8D0A18D9142E5D9E285C269B2F5807F39
:1028F00036D003F10C0252E8002F22F4807203F16B
:102900000C0545E800210029F3D103F1140252E837
:10291000002F22F0010203F1140545E800210029EF
:10292000F3D103F1140252E8002F22F0400203F128
:10293000140545E800210029F3D1202284F83E2027
:10294000216303F10C0252E8002F22F0100203F180
:102950000C0545E800210029F3D1FEF7D7F8A18D39
:10296000E38DC91A204689B201F030FFA2E711F0C9
:10297000010178D115F4907F8FD0D0070AD5E805F2
:1029800040F1D980206C40F00100206450075BD5F5
:1029900000296CD1900770D5100700F1C980216C17
:1029A000002987D0910609D5AA0607D594F83E20BC
:1029B000222A03D12046FFF703FF23685A69216CBE
:1029C00002F0400201F0080152EA01055CD1204604
:1029D000FFF7ECFE25646DE790F83E30222B7FF484
:1029E00069AF03B0BDE83040FFF7EABE94F83D2080
:1029F000212A7FF45FAFA168226AB1F5805F00F001
:102A0000D780511C216212785A60E28C013A92B24E
:102A1000E284002A7FF44EAFDA6822F08002DA60A6
:102A2000DA6842F04002DA6044E7DA68202122F0F6
:102A30004002DA60204684F83D10FFF7B3FE39E724
:102A4000E8059FD4500712D4900716D50029A3D0CB
:102A5000216C41F0040121641107A0D5216C41F0E3
:102A6000080121649BE7D007EAD450075BD5206CAE
:102A700040F0020020649007EAD410078FD505F0DB
:102A8000200008438BD0E9E703F10C0252E8002F45
:102A900022F4907203F10C0040E800210029F3D1E8
:102AA00003F1140252E8002F22F0010203F1140096
:102AB00040E800210029F3D1226B012A22D0002214
:102AC000202184F83E1022635A69550627D503F168
:102AD000140252E8002F22F0400203F1140040E8F3
:102AE00000210029F3D1A06BC8B1374B0365FEF775
:102AF00057F800283FF4DEAEA06B036D03B0BDE8CD
:102B00003040184703F10C0252E8002F22F0100267
:102B100003F10C0040E800210029F3D1CFE7204663
:102B2000FFF744FEC6E6910792D4110796D436E724
:102B3000A90693D433E750073FF52CAF84E7E18D26
:102B4000E28DA08D92B289B2002A3FF4B3AE411A51
:102B500089B200293FF4AEAE03F10C0252E8002F17
:102B600022F4907203F10C0545E800200028F3D10F
:102B700003F1140252E8002F22F0010203F11405C0
:102B800045E800200028F3D1202284F83E2020636D
:102B900003F10C0252E8002F22F0100203F10C05A1
:102BA00045E800200028F3D1204601F00FFE81E621
:102BB000216900297FF425AF32F8021BC1F3080117
:102BC0005960226221E700BFB127000884B010B429
:102BD0000DF1080C8CE80E000B46049913430B43CF
:102BE000DDE90541426823430B4307995DF8044B37
:102BF00022F4FD420B4322F07F021343436004B0F2
:102C000000207047D0F88000704700BF0B68C0F804
:102C100080300020704700BF03230360002070470E
:102C2000006800F00300704714304058704700BF40
:102C300010B4D1E900428B684462CC6882622343BD
:102C4000D1E90441C26A234322F0F7020B43134344
:102C5000C3625DF8044B0020704700BF4A4A8160A0
:102C6000C3684A49126823F47F63A1FB021223F070
:102C70000F03520A41F2883143F48A6301FB02F2E6
:102C8000C360531E4AB1426B12F0450F03F1FF338C
:102C900001D0110504D55A1CF5D14FF00040704702
:102CA000436B5A073ED4436BDB0707D4C5238363CA
:102CB0000369DBB2102B04D001207047012383632A
:102CC000FAE743693248184058B3002B2EDB59000D
:102CD0002FD49A002FD4D9002FD41A0130D45901FF
:102CE00031D4DA0132D4190233D45A0234D49902DD
:102CF0003ED4DA0239D4590334D49A032FD4D903F9
:102D00003FD41A043AD4590435D49A0407D413F0A2
:102D1000080F0CBF4FF480304FF4000070474FF4A1
:102D20008000704704238363184670474FF000709B
:102D3000704740207047802070474FF48070704784
:102D40004FF4007070474FF4806070474FF400609C
:102D500070474FF4805070474FF4005070474FF465
:102D6000802070474FF4003070474FF400407047A8
:102D70004FF4804070474FF4001070474FF48010BC
:102D800070474FF4002070470C000020D34D6210B4
:102D900008E0FFFD81604B4AC3684B49126823F489
:102DA0007F63A1FB021223F00F0343F48A63520AEC
:102DB00041F2883143F0010301FB02F2C360531E6C
:102DC0004AB1426B12F0450F03F1FF3301D01105F8
:102DD00004D55A1CF5D14FF000407047436B5A0799
:102DE0003ED4436BDB0707D4C52383630369DBB29F
:102DF000112B04D00120704701238363FAE7436954
:102E00003248184058B3002B2EDB59002FD49A00BB
:102E10002FD4D9002FD41A0130D4590131D4DA017A
:102E200032D4190233D45A0234D499023ED4DA028D
:102E300039D4590334D49A032FD4D9033FD41A0474
:102E40003AD4590435D49A0407D413F0080F0CBFB0
:102E50004FF480304FF4000070474FF4800070470B
:102E600004238363184670474FF00070704740207A
:102E70007047802070474FF4807070474FF40070A7
:102E800070474FF4806070474FF4006070474FF414
:102E9000805070474FF4005070474FF480207047C7
:102EA0004FF4003070474FF4004070474FF48040BB
:102EB00070474FF4001070474FF4801070474FF484
:102EC000002070470C000020D34D621008E0FFFD89
:102ED00081604B4AC3684B49126823F47F63A1FBAE
:102EE000021223F00F0343F48A63520A41F288313D
:102EF00043F0020301FB02F2C360531E4AB1426B6E
:102F000012F0450F03F1FF3301D0110504D55A1C0F
:102F1000F5D14FF000407047436B5A073ED4436BE6
:102F2000DB0707D4C52383630369DBB2122B04D00C
:102F30000120704701238363FAE743693248184050
:102F400058B3002B2EDB59002FD49A002FD4D90070
:102F50002FD41A0130D4590131D4DA0132D41902F4
:102F600033D45A0234D499023ED4DA0239D4590304
:102F700034D49A032FD4D9033FD41A043AD4590431
:102F800035D49A0407D413F0080F0CBF4FF48030E7
:102F90004FF4000070474FF48000704704238363B0
:102FA000184670474FF000707047402070478020EF
:102FB00070474FF4807070474FF4007070474FF4C3
:102FC000806070474FF4006070474FF48050704746
:102FD0004FF4005070474FF4802070474FF400309A
:102FE00070474FF4004070474FF4804070474FF4F3
:102FF000001070474FF4801070474FF40020704766
:103000000C000020D34D621008E0FFFD4A4A8160A9
:10301000C3684A49126823F47F63A1FB021223F0BC
:103020000F03520A41F2883143F48B6301FB02F231
:10303000C360531E4AB1426B12F0450F03F1FF33D8
:1030400001D0110504D55A1CF5D14FF0004070474E
:10305000436B5A073ED4436BDB0707D4C523836316
:103060000369DBB2182B04D001207047012383636E
:10307000FAE743693248184058B3002B2EDB590059
:103080002FD49A002FD4D9002FD41A0130D459014B
:1030900031D4DA0132D4190233D45A0234D4990229
:1030A0003ED4DA0239D4590334D49A032FD4D90345
:1030B0003FD41A043AD4590435D49A0407D413F0EF
:1030C000080F0CBF4FF480304FF4000070474FF4EE
:1030D0008000704704238363184670474FF00070E8
:1030E000704740207047802070474FF480707047D1
:1030F0004FF4007070474FF4806070474FF40060E9
:1031000070474FF4805070474FF4005070474FF4B1
:10311000802070474FF4003070474FF400407047F4
:103120004FF4804070474FF4001070474FF4801008
:1031300070474FF4002070470C000020D34D621000
:1031400008E0FFFD81604B4AC3684B49126823F4D5
:103150007F63A1FB021223F00F0343F48B63520A37
:1031600041F2883143F0010301FB02F2C360531EB8
:103170004AB1426B12F0450F03F1FF3301D0110544
:1031800004D55A1CF5D14FF000407047436B5A07E5
:103190003ED4436BDB0707D4C52383630369DBB2EB
:1031A000192B04D00120704701238363FAE7436998
:1031B0003248184058B3002B2EDB59002FD49A0008
:1031C0002FD4D9002FD41A0130D4590131D4DA01C7
:1031D00032D4190233D45A0234D499023ED4DA02DA
:1031E00039D4590334D49A032FD4D9033FD41A04C1
:1031F0003AD4590435D49A0407D413F0080F0CBFFD
:103200004FF480304FF4000070474FF48000704757
:1032100004238363184670474FF0007070474020C6
:103220007047802070474FF4807070474FF40070F3
:1032300070474FF4806070474FF4006070474FF460
:10324000805070474FF4005070474FF48020704713
:103250004FF4003070474FF4004070474FF4804007
:1032600070474FF4001070474FF4801070474FF4D0
:10327000002070470C000020D34D621008E0FFFDD5
:10328000002310B44C4A8360C36812684B494C4C0D
:1032900023F47F6323F00F03A1FB021243F489633D
:1032A000520A43F0040304FB02F2C360531E4AB106
:1032B000426B12F0450F03F1FF3301D0120506D522
:1032C000591CF5D14FF000405DF8044B7047436B3B
:1032D0005C073CD4436BD90707D4C52383630369D8
:1032E000DBB20C2B04D00120EEE701238363FAE765
:1032F0004369344818400028E6D0002B2BDB5A00E5
:103300002CD49C002CD4D9002CD41A012DD45C01CF
:103310002ED4D9012FD41A0230D45C0231D49902B0
:103320003BD4DA0236D45C0331D499032CD4DA03CB
:103330003FD41C043AD4590435D49A0430D413F041
:10334000080F0CBF4FF480304FF40000BCE704239B
:1033500083631846B8E74FF00070B5E74020B3E745
:103360008020B1E74FF48070AEE74FF40070ABE718
:103370004FF48060A8E74FF40060A5E74FF4805059
:10338000A2E74FF400509FE74FF480209CE74FF4F2
:10339000003099E74FF4004096E74FF4804093E700
:1033A0004FF4800090E74FF400108DE74FF4801049
:1033B0008AE74FF4002087E70C000020D34D62100D
:1033C00000E1F50508E0FFFD82604B4AC3684B4908
:1033D000126823F47F63A1FB021223F00F0343F46E
:1033E0008863520A41F2883143F0070301FB02F27D
:1033F000C360531E4AB1426B12F0450F03F1FF3315
:1034000001D0110504D55A1CF5D14FF0004070478A
:10341000436B5A073ED4436BDB0707D4C523836352
:103420000369DBB2072B04D00120704701238363BB
:10343000FAE743693248184058B3002B2EDB590095
:103440002FD49A002FD4D9002FD41A0130D4590187
:1034500031D4DA0132D4190233D45A0234D4990265
:103460003ED4DA0239D4590334D49A032FD4D90381
:103470003FD41A043AD4590435D49A0407D413F02B
:10348000080F0CBF4FF480304FF4000070474FF42A
:103490008000704704238363184670474FF0007024
:1034A000704740207047802070474FF4807070470D
:1034B0004FF4007070474FF4806070474FF4006025
:1034C00070474FF4805070474FF4005070474FF4EE
:1034D000802070474FF4003070474FF40040704731
:1034E0004FF4804070474FF4001070474FF4801045
:1034F00070474FF4002070470C000020D34D62103D
:1035000008E0FFFD002383600F4BC2680F491B6872
:1035100022F47F62A1FB031322F00F0242F48062C7
:103520005B0A41F28831C26001FB03F302E0426BA7
:10353000120604D4013BFAD24FF000407047C52375
:1035400083630020704700BF0C000020D34D621041
:103550004FF4D5731A4A8360C3681268014619484C
:1035600023F47F63A0FB020223F00F03520A41F20F
:10357000883043F4896300FB02F2CB60531E4AB1EA
:103580004A6B12F0450F03F1FF3301D0100504D54B
:103590005A1CF5D14FF0004070474B6B5A070CD4C2
:1035A000486B10F0010005D14B6B5B06F4D540234E
:1035B0008B63704701238B637047042088637047D7
:1035C0000C000020D34D621081604B4AC3684B4908
:1035D000126823F47F63A1FB021223F00F0343F46C
:1035E0008E63520A41F2883143F0070301FB02F275
:1035F000C360531E4AB1426B12F0450F03F1FF3313
:1036000001D0110504D55A1CF5D14FF00040704788
:10361000436B5A073ED4436BDB0707D4C523836350
:103620000369DBB2372B04D0012070470123836389
:10363000FAE743693248184058B3002B2EDB590093
:103640002FD49A002FD4D9002FD41A0130D4590185
:1036500031D4DA0132D4190233D45A0234D4990263
:103660003ED4DA0239D4590334D49A032FD4D9037F
:103670003FD41A043AD4590435D49A0407D413F029
:10368000080F0CBF4FF480304FF4000070474FF428
:103690008000704704238363184670474FF0007022
:1036A000704740207047802070474FF4807070470B
:1036B0004FF4007070474FF4806070474FF4006023
:1036C00070474FF4805070474FF4005070474FF4EC
:1036D000802070474FF4003070474FF4004070472F
:1036E0004FF4804070474FF4001070474FF4801043
:1036F00070474FF4002070470C000020D34D62103B
:1037000008E0FFFD41F0004141F480118160184A5A
:10371000C3681849126823F47F63A1FB021223F0E7
:103720000F0343F48D63520A41F2883143F00103E1
:1037300001FB02F2C3608446531E52B1DCF8342010
:1037400012F0450F03F1FF3301D0120504D5591CC7
:10375000F4D14FF000407047DCF8340010F0040062
:1037600015BF0420C523CCF83800CCF8383070479A
:103770000C000020D34D621081604B4AC3684B4956
:10378000126823F47F63A1FB021223F00F0343F4BA
:103790008863520A41F2883143F0060301FB02F2CA
:1037A000C360531E4AB1426B12F0450F03F1FF3361
:1037B00001D0110504D55A1CF5D14FF000407047D7
:1037C000436B5A073ED4436BDB0707D4C52383639F
:1037D0000369DBB2062B04D0012070470123836309
:1037E000FAE743693248184058B3002B2EDB5900E2
:1037F0002FD49A002FD4D9002FD41A0130D45901D4
:1038000031D4DA0132D4190233D45A0234D49902B1
:103810003ED4DA0239D4590334D49A032FD4D903CD
:103820003FD41A043AD4590435D49A0407D413F077
:10383000080F0CBF4FF480304FF4000070474FF476
:103840008000704704238363184670474FF0007070
:10385000704740207047802070474FF48070704759
:103860004FF4007070474FF4806070474FF4006071
:1038700070474FF4805070474FF4005070474FF43A
:10388000802070474FF4003070474FF4004070477D
:103890004FF4804070474FF4001070474FF4801091
:1038A00070474FF4002070470C000020D34D621089
:1038B00008E0FFFD002383604B4AC3684B49126850
:1038C00023F47F63A1FB021223F00F0343F48E6302
:1038D000520A41F2883143F0030301FB02F2C36054
:1038E000531E4AB1426B12F0450F03F1FF3301D072
:1038F000110504D55A1CF5D14FF000407047436BB9
:103900005A073ED4436BDB0707D4C523836303699F
:10391000DBB2332B04D00120704701238363FAE725
:1039200043693348184058B3002B2EDB59002FD47D
:103930009A002FD4D9002FD41A0130D4590131D490
:10394000DA0132D4190233D45A0234D499023ED463
:10395000DA0239D4590334D49A032FD4D9033FD48B
:103960001A043AD4590435D49A0407D413F0080F32
:103970000CBF4FF480304FF4000070474FF48000CC
:10398000704704238363184670474FF000707047F8
:1039900040207047802070474FF4807070474FF48C
:1039A000007070474FF4806070474FF400607047BC
:1039B0004FF4805070474FF4005070474FF4802010
:1039C00070474FF4003070474FF4004070474FF499
:1039D000804070474FF4001070474FF480107047DC
:1039E0004FF40020704700BF0C000020D34D621040
:1039F00008E0FFFD00238360184AC368126801468F
:103A0000174823F47F63A0FB020223F00F0343F463
:103A10009863520A41F2883043F0020300FB02F23D
:103A2000CB60531E4AB14A6B12F0450F03F1FF33CE
:103A300001D0120504D5581CF5D14FF00040704755
:103A40004B6B5B0707D4486B10F0010014BF0123D8
:103A5000C5238B6370470420886370470C000020E7
:103A6000D34D621081601B4AC3681B49126823F45E
:103A70007F63A1FB021223F00F0343F49963520A00
:103A800041F2883143F0010301FB02F2C360844636
:103A9000531E52B1DCF8342012F0450F03F1FF330E
:103AA00001D0120504D5591CF4D14FF000407047E5
:103AB000DCF834305B0709D4DCF8340010F0010086
:103AC00014BF0123C523CCF8383070470420CCF84C
:103AD000380070470C000020D34D6210002310B452
:103AE000274A8360C368274C126823F47F63A4FBD2
:103AF000024223F00F0343F48863520A41F28834F0
:103B000043F0030304FB02F2C360531E4AB1426B4D
:103B100012F0450F03F1FF3301D0120506D55C1CEE
:103B2000F5D14FF000405DF8044B7047436B5B07E5
:103B30001BD4436BDC0705D40369DBB2032B04D031
:103B40000120F0E701238363FAE7C5238363436918
:103B500013F4604010D05A040BD413F4004F0CBF80
:103B60004FF480304FF48050DDE704238363184620
:103B7000D9E74FF40050D6E71B0C0B80D3E700BF0A
:103B80000C000020D34D621081604B4AC3684B4942
:103B9000126823F47F63A1FB021223F00F0343F4A6
:103BA0008963520A41F2883143F0050301FB02F2B6
:103BB000C360531E4AB1426B12F0450F03F1FF334D
:103BC00001D0110504D55A1CF5D14FF000407047C3
:103BD000436B5A073ED4436BDB0707D4C52383638B
:103BE0000369DBB20D2B04D00120704701238363EE
:103BF000FAE743693248184058B3002B2EDB5900CE
:103C00002FD49A002FD4D9002FD41A0130D45901BF
:103C100031D4DA0132D4190233D45A0234D499029D
:103C20003ED4DA0239D4590334D49A032FD4D903B9
:103C30003FD41A043AD4590435D49A0407D413F063
:103C4000080F0CBF4FF480304FF4000070474FF462
:103C50008000704704238363184670474FF000705C
:103C6000704740207047802070474FF48070704745
:103C70004FF4007070474FF4806070474FF400605D
:103C800070474FF4805070474FF4005070474FF426
:103C9000802070474FF4003070474FF40040704769
:103CA0004FF4804070474FF4001070474FF480107D
:103CB00070474FF4002070470C000020D34D621075
:103CC00008E0FFFD10B4104B5C7ACCB9024604F05A
:103CD000FF005C7A18555C7A03EB840462605C7ABE
:103CE0005A7A1C442072541CE4B25C7230323A247A
:103CF0002F234C700A705DF8044B8B70C8707047AE
:103D000001205DF8044B70473000002000B583B0FF
:103D100084460093054813460A466146FDF7CAFCEF
:103D2000003818BF012003B05DF804FB70000020CC
:103D300000B583B084460093054813460A466146A1
:103D4000FDF7B4FD003818BF012003B05DF804FB97
:103D50007000002008B50348FEF7B4FA043818BF15
:103D6000012008BD7000002001460148FEF7F6B9A9
:103D700070000020704700BF08B5FFF7FBFF08BDCB
:103D8000704700BF08B5FFF7FBFF08BD704700BFD5
:103D900008B5FFF7FBFF08BD00B583B001238DF820
:103DA000073000F0ABF808B98DF807009DF8070060
:103DB00003B05DF804FB00BF08B5FFF7EDFF012875
:103DC00001D0012008BD0748FEF7AAF90028F9D163
:103DD0004FF400610348FEF7D7F9003818BF0120FF
:103DE00008BD00BF7000002010B50B480B4C00232D
:103DF00003214FF43022C0E90041C0E90233C0E999
:103E0000042383618383FCF74BFA00B910BDBDE83E
:103E1000104000F09DB900BF3C000020006400404D
:103E200030B5204B026889B000249A42CDE90244A3
:103E3000CDE90444069401D009B030BD03F5EA335E
:103E400000941A6C184842F000721A641A6C02F05E
:103E500000720092009A01941A6B42F008021A63F1
:103E60001B6B03F00803019303220223CDE9022315
:103E700002A90923032206930592019DFCF778FF0E
:103E8000224605211420FCF761FD1420FCF79AFD61
:103E9000224605211520FCF759FD1520FCF792FD5F
:103EA00009B030BD00640040000C024000B583B092
:103EB00000220A4B0192196B41F4800119631B6BBC
:103EC00003F4800301933A201146019BFCF73EFD69
:103ED0003A2003B05DF804EBFCF774BD00380240F3
:103EE00008B503490348FFF7EDFE034B187008BD02
:103EF00064000020305100086800002008B54FF42D
:103F000000410348FDF76CF8B0FA80F0400908BDA5
:103F100000100240F0B500248FB0CDE90844CDE98F
:103F20000A44404B00940C941A6B3F4D3F4E42F0B4
:103F300040021A631A6B02F040020092009A019448
:103F40001A6B42F004021A631A6B02F00402019227
:103F5000019A02941A6B42F001021A631A6B02F082
:103F600001020292029A03941A6B42F002021A634F
:103F70001A6B02F002020392039A04941A6B42F045
:103F800008021A631A6B02F008020492049A05945C
:103F90001A6B42F080021A631A6B02F080020592DB
:103FA000059A06941A6B42F010021A631A6B02F01B
:103FB00010020692069A07941A6B42F020021A63C6
:103FC0001B6B03F020030793224628464FF4006141
:103FD000079BFDF70BF8224630464FF48041FDF772
:103FE00005F801274FF4006308A92846CDE90837F2
:103FF000CDE90A44FCF7BCFE08A930464FF48043E3
:104000000893CDE90A440997FCF7B2FE4FF4004249
:10401000002308A92846CDE908230A94FCF7A8FE46
:104020000FB0F0BD00380240001002400014024002
:1040300008B5074800224FF40061FCF7D7FFBDE840
:104040000840044800224FF48041FCF7CFBF00BF76
:10405000001002400014024030B5002395B0CDE9B5
:104060000A33CDE90C33CDE90333CDE905332049DB
:1040700001930793086C1F4A40F080500864096C54
:1040800001F08051019101990293136843F4404378
:104090001360136801204FF4803103F44043CDE9ED
:1040A000080102934FF480010224CDE90E410298E9
:1040B00007210220CDE912010622A82308A81092A8
:1040C0001193FCF797FF00B1FEE70F220346CDE9FD
:1040D00003244FF4A0554FF4805203A80521CDE9E5
:1040E00005350792FDF79CF900B1FEE715B030BD2C
:1040F000003802400070004008B5FCF793F8FFF765
:10410000ABFFFFF707FFFFF7D1FE00F0A3F8FFF7C3
:10411000E7FE00F0FFF9FFF767FE00F0DBF9FFF7BD
:1041200087FF00F033FB0A20FCF7A8F800F066FDDB
:1041300000F0F4FC0A20FCF7A1F8FBE7034B02684F
:104140009A4200D07047FCF787B800BF00200040BB
:10415000FEE700BF38B50A4C01252570FFF72CFE9D
:1041600008B1207838BD2570FFF7F4FD18B9237821
:1041700003F0FE0323702378DBB22370207838BD70
:104180000800002010B5064C01232370FFF7E2FD64
:1041900018B9237803F0FE032370207810BD00BF08
:1041A0000800002030B5164B187810F0010489B0D3
:1041B00006D11546032920D8DFE801F0030F1706C2
:1041C0000324204609B030BD6846FFF7CDFD079BAC
:1041D00020465B0A2B6009B030BD6846FFF7C4FD7E
:1041E000069B2B60204609B030BD6846FFF7BCFD3A
:1041F000079B2B80204609B030BD0424E1E700BFB7
:104200000800002008B5084611461A464FF0FF3353
:10421000FFF77CFD08B1012008BDFFF79BFD0028DA
:10422000FAD0FFF797FD0028F7D1F5E708B5084663
:1042300011461A464FF0FF33FFF77AFD08B101200F
:1042400008BDFFF787FD0028FAD0FFF783FD00289F
:10425000F7D1F5E7064B074800224FF40061C3E9A8
:104260000002C3E9022219615A619A61704700BFD6
:1042700070000020002C014070B5274B02688AB006
:1042800000249A42CDE90444CDE90644089401D0C3
:104290000AB070BD03F5863301945A6C1F4842F48E
:1042A00000625A645A6C02F400620192019A02940C
:1042B0001A6B42F004021A631A6B02F004020292B3
:1042C000029A03941A6B42F008021A631B6B03F004
:1042D000080303934FF4F85203260C2504A9022384
:1042E000CDE904230796039B0895FCF741FD0423C1
:1042F00004A904930A48089502230593CDE90646CC
:10430000FCF736FD224621463120FCF71FFB312009
:10431000FCF758FB0AB070BD002C014000080240B9
:10432000000C024082B00C4B002100915A6C42F408
:1043300080425A645A6C02F480420092009A0191C1
:104340001A6C42F080521A641B6C03F08053019384
:10435000019B02B0704700BF0038024070B588B0C2
:10436000234B002202921A6C42F480721A641B6C76
:1043700003F480730293054601A903A8029BFDF78D
:104380000DF9069BD3B9FDF7E9F80346194A1A4C13
:104390001A49A2FB03239B0C013B0022C4E9001332
:1043A000204640F2E7332261A260A261E360FDF79C
:1043B0009FFF064630B1304608B070BDFDF7CEF81D
:1043C0004300E3E72046FEF723F806460028F2D133
:1043D0002D20FCF7F7FA0F2D01D90126EBE7324625
:1043E00029462D20FCF7B2FA054B1D60E3E700BF1C
:1043F0000038024083DE1B43F40000200020004010
:1044000004000020FEE700BFFEE700BFFEE700BF9C
:10441000FEE700BFFEE700BF704700BF704700BF68
:10442000704700BF704700BF0148FCF71FB900BFCD
:104430003C0000200148FCF719B900BF3C000020F7
:1044400008B500F09BFBBDE808400148FEF716BA2E
:10445000E80100200148FEF71DB800BFF40000206D
:104460000148FDF733BB00BF700000200148FCF796
:10447000A9BB00BF3C0100200148FEF7FFB900BF07
:10448000A00100201049114BD1F8882042F470029D
:1044900010B4C1F888201A680D4C002042F00102C7
:1044A0001A6098601A6822F0847222F480321A60CE
:1044B0005C601A684FF0006422F480221A60D860B1
:1044C0008C605DF8044B704700ED00E0003802405E
:1044D000103000240C480D490D4A10B50023C0E9E6
:1044E00000124FF480544FF480610422C0E902436B
:1044F000016142618361C361FEF77AF800B910BDC2
:10450000BDE81040FFF724BEE80100200010014084
:10451000A086010010B50B480B4C00234FF4E1318D
:104520000C22C0E90041C0E90233036142618361AA
:10453000C361FEF75DF800B910BDBDE81040FFF79C
:1045400007BE00BFA00100200014014070B5036841
:10455000424A8AB000249342CDE90444CDE906449E
:10456000089404D03E4A934248D00AB070BD3D4BF7
:1045700000945A6C3C4E42F010025A645A6C02F09D
:1045800010020092009A01941A6B42F002021A6320
:104590001B6B03F002030193C0220223CDE9042325
:1045A000032307930546019B3048072304A908937A
:1045B000FCF7DEFB2E4A4FF00063C6E900234FF400
:1045C0008073C6E906434FF480624FF440333046AF
:1045D000C6E90244C6E90424C6E90834FCF700FA37
:1045E000002837D10022AE6311462520B563FCF7C1
:1045F000ADF92520FCF7E6F90AB070BD194B02941D
:104600005A6C1C4842F020025A645A6C02F0200294
:104610000292029A03941A6B42F040021A631B6BD7
:1046200003F0400303934FF484420223CDE90423B3
:1046300004A90823032208930792039DFCF798FB23
:10464000224621464720FCF781F94720FCF7BAF9BA
:104650000AB070BDFFF77CFDC4E700BF0010014049
:1046600000140140003802403C01002000040240D8
:10467000406402400018024010B58AB001AB03AAA2
:1046800000210446FBF74AFF3D4B9C4201D00AB093
:1046900010BD039B6FF400721344032BF7D8DFE8BF
:1046A00003F054391E02BDF80620BDF80400354B56
:1046B000BDF8081052BA14B207EE904A40BADC8B2B
:1046C000D883F8EEE77A30481C8449BA9DF80A404E
:1046D0005A84998483F82640C0EDE57AD7E7BDF87F
:1046E0000620BDF80400274BBDF8081052BA14B2DA
:1046F00007EE904A40BA9C8A9882F8EEE77A224800
:10470000DC8249BA9DF80A401A8359831C77C0EDB0
:10471000997ABCE7BDF80620BDF80400194BBDF836
:10472000081052BA14B207EE904A40BA5C89588118
:10473000F8EEE77A14489C8149BA9DF80A40DA817C
:1047400019829C74C0ED4D7AA1E7BDF80620BDF832
:1047500004000C4BBDF8081052BA14B207EE904A90
:1047600040BA1C881880F8EEE77A07485C8049BA9E
:104770009DF80A409A80D9801C72C0ED017A86E7C4
:104780003C0000202C0200202803002030B50E4CF5
:104790008BB000220023CDE90023CDE90223CDE92F
:1047A000042369460022012301252046CDE9062382
:1047B0000895FBF7F5FD2046FBF782FE0221204617
:1047C000FBF72AFF0BB030BD3C000020704B0268A5
:1047D0009A4200D070476F4B1A780F2A07D06E4B61
:1047E0006C496E4800221A701922FDF793BF2DE91B
:1047F000F04F1A7E684889B0002A00920CBF01224F
:104800000022027040F0BC805E7993F80490DC785E
:10481000187D93F813805F7A01974FEA862E0EEB8E
:10482000890E0EEB941E9F7CCDF808E04FEA402ED7
:104830000EEB480E0EEBD71ECEF30A0ECDF810E0AD
:1048400093F815E0D97B1A7C0791800800EB8E1055
:10485000C0F30A08987907999D7B93F80DA093F807
:1048600011C0B3F8019093F80AB0CDF8148076081F
:1048700006EBC01603969E7893F80880640104EB5B
:10488000D604DE7A06965608920202EB810202EB0B
:1048900095126D01009905EBDA0506EBCC16C5F310
:1048A0000A054FEA1C1C93F816A007950CEB071C91
:1048B000DD799F890B4669F30F0364F31F430C46B0
:1048C000029961F30F04039961F31F44019924F0E5
:1048D000F8294C0204EB4804000900EB051004EB36
:1048E000D5148D0806994FEA5B1808EBC1080099AA
:1048F000C6F30A0605EB8B158B46CCF30A0C66F360
:104900000F0B6CF31F4B0E468C46049961F30F0698
:104910000599C7F30A0761F31F46614668F30F0C58
:1049200067F31F4C88460F460799C2F30A0261F3EA
:104930000F0762F31F471A4AC0F30A0023F0F82357
:10494000C2E9003910814FEA5E131648C2F80EC062
:10495000BEFA8EFE4FEA5E1E80F800E00E48C2F8F6
:104960001270C4F30A04C5F30A0503EBCA035481A9
:104970009581C2F816B0C2F81A60D38380F800801F
:1049800004490648192209B0BDE8F04FFDF7C2BE40
:10499000001001407C02002095020020E801002068
:1049A000580200207802002043788278DFED586AB0
:1049B0009FED587A43EA0223C3F30A0307EE903AC5
:1049C000F8EEE77A544A77EEE67A87EE876A82ED68
:1049D000006A8178C3785B0143EAD103C3F30A0319
:1049E00007EE903AF8EEE77A77EEE67A87EE876A96
:1049F00082ED016A90F803C0037941799B0043EA94
:104A00009C1343EA8123C3F30A0307EE903AF8EEBE
:104A1000E77A77EEE67A87EE876A82ED026A417975
:104A20008379DB0143EA5103C3F30A0307EE903AAB
:104A3000F8EEE77A77EEE67A87EE876A82ED036A28
:104A40008179C3791B0143EA1113C3F30A0307EE0B
:104A5000903AF8EEE77A77EEE67A87EE876A82EDAB
:104A6000046A90F807C0037A417A5B0043EADC13DA
:104A700043EA4123C3F30A0307EE903AF8EEE77ADC
:104A800077EEE67A87EE876A82ED056A417A837A65
:104A90009B0143EA9103C3F30A0307EE903AF8EE51
:104AA000E77A77EEE67A87EE876A82ED066A817AA0
:104AB000C37ADB0043EA511307EE903AF8EEE77A47
:104AC00077EEE67A87EE876A82ED076A037B417BA1
:104AD00043EA0123C3F30A0307EE903AF8EEE77ABC
:104AE00077EEE67A87EE876A82ED086A417B837B00
:104AF0005B0143EAD103C3F30A0307EE903AF8EEF1
:104B0000E77A77EEE67AC7EE876AC2ED096A704700
:104B100000007A4400C02744FC02002010B4134B6C
:104B20001B681A6822F001021A601A68D207F8D4CA
:104B30000F4A104C9C6002F132003221DA60186199
:104B400059601A680C485DF8044B42F480221A60E0
:104B50001968026841F001011960536943F040038C
:104B60005361D36843F01003D36070473C010020C9
:104B70009802002004100140E80100201B4B1C4952
:104B80001B6882B0002201921A6801925A680B6871
:104B90000192019A1A6822F001021A6032215A68C1
:104BA00059601968C2F1320211F4002F92B21968EB
:104BB0000AD141F4002119601968192A41F0010154
:104BC00019600ED002B0704721F4002119601968F5
:104BD000192A41F001011960F4D1064802B0FFF72B
:104BE000E3BE054802B0FFF7DFBE00BFE8010020CA
:104BF0003C010020CA0200209802002038B5244C55
:104C00002DED048B9FED238ADFED239A9FED239AF0
:104C1000DFED238A84ED248A04F5846284ED018A21
:104C200084ED008A84ED708A84ED4D8A84ED4C8A8F
:104C300084EDBC8A84ED998A84ED988A84EDE58AB6
:104C400084EDE48A04F1080582ED008A04F5996494
:104C500028469FED113A9FED112AF0EE693AF0EEE9
:104C6000492AF0EE681AB0EE481A0023F1EE080A5D
:104C7000B0EE080A40F6B8324FF4165105F59875B3
:104C800000F05AF8A542E3D1BDEC048B38BD00BF5B
:104C900028030020000000000AD7A33C0000C842FF
:104CA000CDCCCC3D0000000007EE902A4A0007EE74
:104CB000102AF8EE676A07EE901A9FED155BF8EE82
:104CC000677AB8EEC77A0022002180ED1C5B80ED88
:104CD000120AC0ED116AC0ED107A80ED147A0260FC
:104CE000C0ED020A80ED031AC0ED041A026380EDE4
:104CF000152AC0ED162A80ED173AC0ED183A80F853
:104D00006D3080F878104263704700BFAFF30080C9
:104D10000000000000000000F5EE400A0023F1EE64
:104D200010FA80ED020AC0ED030A80ED041A08BFF4
:104D3000836270470000000007EE902A4A0007EEE9
:104D4000102AF8EE676A07EE901A10B41849194C49
:104D500080ED120A9FED145BF8EE677AB8EEC77A21
:104D60000022C0E92041002180ED1C5B5DF8044B6E
:104D7000C0ED116AC0ED107A80ED147A0260C0EDCA
:104D8000020A80ED031AC0ED041A026380ED152AB1
:104D9000C0ED162A80ED173AC0ED183A80F86D3054
:104DA00080F87810426370470000000000000000A7
:104DB000194D0008A94C0008DFF834D00D480E4901
:104DC0000E4A002302E0D458C4500433C4188C4265
:104DD000F9D30B4A0B4C002301E013600432A242CA
:104DE000FBD3FFF74FFB00F011F8FFF785F9704791
:104DF0000000032000000020100000206C5100087B
:104E000010000020E8070020FEE7000070B50D4DFF
:104E10000D4C641BA4100026A64209D10B4D0C4C6E
:104E200000F076F9641BA4100026A64205D170BDDF
:104E300055F8043B98470136EEE755F8043B984790
:104E40000136F2E76451000864510008645100081B
:104E5000685100082DE9F047089D0C46002B4ED103
:104E600094468C458646B2FA82F262D94AB1C2F1C2
:104E70002003914020FA03F30CFA02FC194300FAD4
:104E800002FE4FEA1C471FFA8CF6B1FBF7F44FEA1B
:104E90001E4307FB141143EA014304FB06F1994248
:104EA0000AD91CEB030304F1FF3080F01281994210
:104EB00040F20F81023C6344591A1FFA8EF3B1FB92
:104EC000F7F007FB101143EA014300FB06F69E4290
:104ED0000AD91CEB030300F1FF3180F0FC809E42F5
:104EE00040F2F980634402389B1B40EA04400021F1
:104EF0001DB1D3400022C5E90032BDE8F0878B42E6
:104F000005D90DB1C5E9000100210846F5E7B3FA5E
:104F100083F1002946D1A34202D39042C0F0F08031
:104F2000861A64EB03030120002DE6D0C5E9006377
:104F3000E3E7002A40F09080A1EB0C044FEA1C4804
:104F40001FFA8CF70121B4FBF8F64FEA1E4308FB69
:104F5000164443EA044307FB06F0984208D91CEBC9
:104F6000030306F1FF3402D2984200F2CD802646B8
:104F70001C1A1FFA8EF3B4FBF8F008FB104443EA46
:104F8000044300FB07F79F4208D91CEB030300F121
:104F9000FF3402D29F4200F2B0802046DB1B40EA81
:104FA0000640A5E7C1F120068B4022FA06F71F4311
:104FB00020FA06FC04FA01F343EA0C03F44000FA79
:104FC00001F8380C4FEA1349B4FBF0FE1FFA87FCD6
:104FD00000FB1E4449EA04440EFB0CF9A14502FA09
:104FE00001F20AD93C190EF1FF3A80F08480A14504
:104FF00040F28180AEF1020E3C44A4EB09041FFA9A
:1050000083F9B4FBF0F300FB134449EA044403FBC7
:105010000CFCA44507D93C1903F1FF3067D2A44525
:1050200065D9023B3C4443EA0E40A0FB0293A4EB4B
:105030000C049C42CE469C4651D34ED055B1B8EBA1
:105040000E0364EB0C0404FA06F6CB401E43CC407E
:10505000C5E90064002150E7C2F1200320FA03F102
:105060000CFA02FC24FA03F394400C434FEA1C4868
:1050700000FA02FE1FFA8CF7B3FBF8F008FB1031C0
:10508000230C43EA014300FB07F1994208D91CEBCA
:10509000030300F1FF362CD299422AD90238634427
:1050A0005B1AA4B2B3FBF8F108FB113344EA0344E2
:1050B00001FB07F3A34208D91CEB040401F1FF36FE
:1050C00013D2A34211D902396444E41A41EA0041DF
:1050D00039E70446F0E6084606E7C845AED2B9EB24
:1050E000020E63EB070C0138A8E73146EDE70346F3
:1050F00099E73046D4E7D6467FE7634402384DE768
:105100000646234608460FE7023E634430E700BFE9
:10511000F8B500BFF8BC08BC9E467047F8B500BFA4
:08512000F8BC08BC9E46704774
:1051280000061016000610165541000885410008B3
:10513800054200082D420008A541000800000000B3
:105148000102030400000000000000000102030443
:045158000607080935
:08515C00F8FCFF7F01000000D8
:045164000902000834
:04516800E501000855
:10516C000100000010000000010000000024F40009
:0400000508004DB9E9
:00000001FF
