:020000040800F2
:10000000000003203D720008F9700008FD70000830
:100010000171000805710008097100080000000066
:100020000000000000000000000000000D7100084A
:100030001171000800000000157100081971000816
:100040008D7200088D7200088D7200088D72000894
:100050008D7200088D7200088D7200088D72000884
:100060008D7200088D7200088D7200088D72000874
:100070008D7200088D7200088D7200088D72000864
:100080008D7200088D7200088D7200088D72000854
:100090008D7200088D7200088D7200088D72000844
:1000A0008D7200088D7200088D7200088D72000834
:1000B0008D7200088D7200088D7200088D72000824
:1000C0008D7200088D7200088D7200088D72000814
:1000D0008D7200088D7200088D7200088D72000804
:1000E0008D7200088D7200088D7200088D720008F4
:1000F0008D7200088D7200088D7200088D720008E4
:100100008D7200081D7100088D7200088D72000844
:100110008D7200088D7200088D7200088D720008C3
:100120008D7200088D7200088D7200088D720008B3
:100130008D7200088D7200088D7200088D720008A3
:100140008D7200088D7200088D7200088D72000893
:100150008D7200088D7200088D72000829710008E8
:100160008D7200088D7200088D7200088D72000873
:100170008D7200088D7200088D720008000000006A
:100180008D7200088D7200088D7200088D72000853
:100190008D7200088D7200088D7200088D72000843
:0C01A00000000000000000008D7200084C
:1001B00053B94AB9002908BF00281CBF4FF0FF31CE
:1001C0004FF0FF3000F00CB8ADF1080C6DE904CE33
:1001D00007F098F8DDF804E0DDE9022304B0704789
:1001E000704700BF10B5054C237833B9044B13B1E9
:1001F0000448AFF300800123237010BD38000020B5
:1002000000000000C075000808B5034B1BB103498E
:100210000348AFF3008008BD000000003C00002050
:10022000C075000838B50E4A0E4B12781B6805469B
:100230004FF47A70B0FBF2F0B3FBF0F000F0B0F8DE
:1002400008B90F2D01D9012038BD044602462946C0
:100250004FF0FF3000F05AF8034B20461D6038BDC8
:1002600000000020300000200400002008B50B4BE7
:100270001A6842F400721A601A6842F480621A60C6
:100280001A6842F480721A60032000F02DF80020F2
:10029000FFF7C8FF06F014FF002008BD003C024035
:1002A000034A044B11681B780B441360704700BF6E
:1002B0005400002000000020014B1868704700BF68
:1002C0005400002038B50446FFF7F6FF631C0546CE
:1002D00002D0044B1B781C44FFF7EEFF401BA042EA
:1002E000FAD338BD000000200749CA6803024FF660
:1002F000FF0003F4E0630240134343F0BF6343F4A1
:100300000033CB60704700BF00ED00E01B4BDB68A3
:10031000C3F3022300B5C3F1070EBEF1040F03F1CE
:10032000040C28BF4FF0040EBCF1060F1CD9A3F13A
:10033000030C4FF0FF3303FA0CF322EA03024FF0F1
:10034000FF3303FA0EF321EA030303FA0CF313431A
:100350001B010028DBB20ADB00F1604000F56140C0
:1003600080F800335DF804FB00229446E7E7044A76
:1003700000F00F00024413765DF804FB00ED00E08E
:10038000FCEC00E0002807DB4109044A00F01F00F4
:100390000123834042F82130704700BF00E100E0B4
:1003A0000138B0F1807F01D30120704710B44FF0C5
:1003B000E023074C58614FF0F00C84F823C0002272
:1003C000072110469A615DF8044B1961704700BF20
:1003D00000ED00E070B50446866DFFF76DFF94F800
:1003E0003530022B06D080236365002384F8343037
:1003F000012070BD23681A6822F016021A605A693B
:1004000022F080025A61226C054642B31A6822F03B
:1004100008021A601A6822F001021A6005E0FFF76C
:100420004BFF431B052B10D823681B6813F00103F7
:10043000F5D1E16D3F228A40184601210023B260C8
:1004400084F8351084F8343070BD032320226265AF
:10045000184684F83530002384F8343070BDA26C1F
:10046000002AD3D1D6E700BF90F83530022B03D055
:1004700080234365012070470268052380F83530EA
:10048000136823F001030020136070472DE9F04F3B
:1004900000230C68DFF844A285B04FF0010B8946B9
:1004A00003E00133102B00F09C800BFA03F202EA08
:1004B0000408A243F5D1D9F8041001F003024FEA71
:1004C000430C0325571E05FA0CF5012F6FEA0505AD
:1004D00040F28A80032A40F0C080076802FA0CF2DA
:1004E0003D402A4311F4403F0260DAD000220392DB
:1004F000DAF8442042F48042CAF84420DAF8442072
:1005000002F480420392039A23F0030202F1804234
:1005100003F003070F2602F59C32BF0006FA07FC22
:100520006B4E9568B04225EA0C0531D006F5806621
:10053000B04200F09D80674EB04200F09F80DFF82F
:10054000A0C1604500F0A080DFF898C1604500F0D0
:10055000A180DFF894C1604500F0A880DFF88CC16D
:10056000604500F0A980DFF888C1604500F0988000
:10057000DFF880C1604500F0A580DFF87CC16045F0
:100580000CBF4FF0090C4FF00A0C0CFA07F73D4373
:100590009560514A9268CE026FEA08054E4E54BFEC
:1005A0002A4048EA0202B260F2684B4E8F0254BF02
:1005B0002A4048EA0202F26072688E03464E54BF37
:1005C0002A4048EA020272603268C90303F101035B
:1005D000414954BF2A4048EA0202102B0A607FF4C6
:1005E00064AF05B0BDE8F08F876807EA050ED9F85B
:1005F0000C7007FA0CF747EA0E078760476827EA8E
:10060000080EC1F300179F4047EA0E074760C7680E
:1006100007EA050ED9F8087007FA0CF747EA0E0743
:10062000022AC7607FF459AFDF0800EB8707019704
:100630003E6AD9F81070009603F0070E4FEA8E0E4E
:100640000F2607FA0EF706FA0EFE009E26EA0E0E99
:10065000019E47EA0E0737623FE7C76807EA050EC3
:10066000D9F8087007FA0CF747EA0E07C76034E7B5
:100670004FF0010C0CFA07F73D4389E74FF0020CED
:100680000CFA07F73D4383E74FF0030C0CFA07F72A
:100690003D437DE74FF0040C0CFA07F73D4377E745
:1006A0004FF0070C0CFA07F73D4371E74FF0050CCC
:1006B0000CFA07F73D436BE74FF0060C0CFA07F70F
:1006C0003D4365E74FF0080C0CFA07F73D435FE741
:1006D0000000024000080240003C01400038024097
:1006E000000C0240001002400014024000180240BA
:1006F000001C0240002002400024024002B909040C
:1007000081617047436901EA030221EA030141EA7A
:1007100002418161704700BF002800F0D8812DE9B7
:10072000F0410368DD0782B004462FD59D498A68F1
:1007300002F00C02042A00F0EC808A6802F00C023D
:10074000082A00F0E2806368B3F5803F00F0EB8098
:10075000B3F5A02F00F07381924D2A6822F4803205
:100760002A602A6822F480222A60002B40F0E08070
:10077000FFF7A2FD064605E0FFF79EFD801B6428FB
:1007800000F200812B689F03F6D423689D0728D5CB
:10079000844A916811F00C0F00F09B80916801F081
:1007A0000C01082900F09180E368002B00F00C8117
:1007B0007D4B7C4E01221A60FFF77EFD054605E069
:1007C000FFF77AFD401B022800F2DC8033689F07A8
:1007D000F6D53368226923F0F80343EAC203336095
:1007E00023681A075CD45D073AD56E4A136C13F080
:1007F000805340F088800193136C43F0805313645E
:10080000136C03F080530193019B0125674E3368FD
:10081000D80540F1A780A368012B00F0B780052B15
:1008200000F01D815F4E326F22F001023267326F9D
:1008300022F004023267002B40F0AD80FFF73CFD50
:1008400041F28838074605E0FFF736FDC01B4045FA
:1008500000F29880336F9B07F6D4002D40F0F980AA
:10086000A369CBB14F4DAA6802F00C02082A00F030
:10087000BC80022B4C4B4FF000021A6600F0F9804E
:10088000FFF71AFD044604E0FFF716FD001B0228DF
:1008900078D82B689B01F7D4002002B0BDE8F08126
:1008A0006369FBB1404B3F4E0122C3F8802EFFF736
:1008B00003FD054604E0FFF7FFFC401B022861D85A
:1008C000736F9B07F7D523688DE7526851023FF598
:1008D0006BAF344A1268920738D5E268012A35D0E6
:1008E0000120DAE7304A2F4EC2F8803EFFF7E4FCE1
:1008F000054604E0FFF7E0FC401B022842D8736F76
:100900009F07F7D4DFE7002580E74A6851027FF5AB
:100910001AAF244A126892037FF538AF6268002A42
:100920007FF434AFDCE71F4A136843F4803313606D
:10093000FFF7C2FC1B4E054604E0FFF7BDFC401B61
:1009400064281FD833689B03F7D51EE71549206933
:100950000A6822F0F80242EAC0020A601A077FF52C
:1009600042AF9DE7336843F480733360FFF7A4FC24
:1009700007463368D9053FF54EAFFFF79DFCC01B16
:100980000228F6D9032002B0BDE8F081054A136FB2
:1009900043F001031367FFF78FFC024F064641F255
:1009A00088380AE0003802400000474200700040EA
:1009B000FFF782FC801B4045E4D83B6F9A07F7D5D0
:1009C000002D3FF44DAF44E0424A434E1360FFF721
:1009D00073FC054604E0FFF76FFC401B0228D1D8EA
:1009E00033689907F7D42368FBE6012B3FF478AF0F
:1009F0006B68E26903F4800191427FF471AF226A6F
:100A000003F03F0191427FF46BAF616A47F6C07219
:100A10001A40B2EB811F7FF463AFA26A520803F45D
:100A20004031013AB1EB024F7FF45AAFE26A03F072
:100A30007063B3EB026F14BF012000202DE7264B3B
:100A40001A6842F480221A601A6842F480321A60EE
:100A50006EE7214A136C23F08053136400E71E4BAA
:100A60001A6F42F004021A671A6F42F001021A6705
:100A700091E7FFF721FC064605E0FFF71DFC801B10
:100A800002283FF67FAF2B689901F6D4D4E90731ED
:100A9000626A0B4343EA8213D4E90A21520843EA0B
:100AA0000163013A0B4943EA024301226B600A6683
:100AB000FFF702FC084D044605E0FFF7FDFB001BB5
:100AC00002283FF65FAF2B689A01F6D5E4E60120D5
:100AD000704700BF0000474200380240164908B581
:100AE0008B6803F00C03042B1BD0082B17D14A682A
:100AF0004B68496813F4800302F03F0213D10F489A
:100B0000C1F38811A1FB0001FFF752FB0A4B5B68A0
:100B1000C3F3014301335B00B0FBF3F008BD0748AA
:100B200008BD074808BD0648C1F388110023A1FB92
:100B30000001FFF73DFBE9E7003802400024F40024
:100B4000001BB700002800F08780484A136803F0B4
:100B50000F038B422DE9F0410D46044609D2CBB27A
:100B60001370136803F00F038B4202D00120BDE81D
:100B7000F0812368980714D5590704D53C498A6841
:100B800042F4E0528A601A0704D539498A6842F46F
:100B900060428A603649A0688A6822F0F002024307
:100BA0008A60DF0721D56268012A57D0931E012B86
:100BB0002F4B1B684DD99907D8D52D4EB36823F01C
:100BC00003031343B360FFF777FB41F2883807460E
:100BD00004E0FFF771FBC01B404544D8B36862686E
:100BE00003F00C03B3EB820FF3D1204A136803F038
:100BF0000F03AB4206D9EBB21370136803F00F0377
:100C0000AB42B3D123685A0706D51949E0688A6810
:100C100022F4E05202438A601B0707D5144A216977
:100C2000936823F4604343EAC1039360FFF756FFE0
:100C30000F4A104C92681049C2F303120346A25C9B
:100C40000E48D34000680B60FFF7ECFA0020BDE8C7
:100C5000F0819801B1D489E701207047044B1B68EB
:100C60009E03AAD482E7032081E700BF003C024034
:100C700000380240B47B000830000020040000204F
:100C8000044B05499B68054A0868C3F38223D35C7B
:100C9000D84070470038024030000020AC7B00088C
:100CA000044B05499B68054A0868C3F34233D35C8B
:100CB000D84070470038024030000020AC7B00086C
:100CC000F0B589B005460F46FFF7F6FA0023082174
:100CD00006462868CDE9003301F01CFA044610B13D
:100CE000204609B0F0BD296D2868090401F0C8FE4E
:100CF00004460028F4D14FF0FF320292082130223E
:100D0000CDE9031201230222069002A92868059268
:100D1000079301F0E9F9286802F028F8044640B189
:100D2000DEE7436B990415D5FFF7C6FA831B013341
:100D300024D02868436B13F02A0F0BD1436B9B021E
:100D4000EFD501F0BBF908AB03EB8403013443F8A2
:100D5000200CE9E7436B1A0716D4436B9B0716D4A4
:100D6000446B14F020040CD1DDE9003240F23A511A
:100D700012BA1BBA8163C7E90023B1E74FF0004400
:100D8000AEE720248463ABE708248463A8E7022449
:100D90008463A5E72DE9F04F87B00D46DDF840806C
:100DA000044691461F46FFF787FA002D66D094F857
:100DB0003430012B53D1E26D09EB0701002391423E
:100DC000A36360D806462068626C032184F834105F
:100DD000C3624FF0FF3300937B0201934FF0020A8E
:100DE0009023012ACDE9023A4FF0010B4FF00003A6
:100DF000694618BF4FEA4929CDE9043B01F074F96F
:100E00005F4534D92068C4F830A0494601F0BCFAE7
:100E1000226800283CD1DDF804A040F22A3905E020
:100E2000FFF74AFA801B404572D22268516B11EAE3
:100E3000090F134637D1526B1104F1D5BAF1000FE7
:100E4000EED005F1200B00E02368184601F036F9DA
:100E500045F8040B5D45F7D1AAF1200AE0E7A36B42
:100E600043F00053A363012007B0BDE8F08F206872
:100E7000C4F830B0494601F0E9F9C9E7A36B43F083
:100E80000063A363EFE7A36B43F00073A363EAE798
:100E90003D4B9363A36B012103430022A36384F8BA
:100EA00034102263DFE7526BD2050CD5012F0AD92B
:100EB000626C032A07D0184601F03EFC236810B18B
:100EC000314A9A63E6E75A6B12F0080239D1596B3E
:100ED00011F002012AD15A6B90063ED4AA440BE0CD
:100EE00055450DD001F0EAF845F8040BFFF7E4F999
:100EF000801B404523683BD25A6B92021846EFD4C0
:100F000040F23A5101229963002084F83420ABE783
:100F100023681D4A9A63A36B012143F0004300221A
:100F2000A363032084F8341022639DE71649996374
:100F3000A36B012143F00203A36384F834102263FE
:100F400091E7114A9A63A36B012143F00803002241
:100F5000A36384F83410226385E70B4A9A63A36B7A
:100F6000012243F02003A36384F8342021637AE74D
:100F7000054A9A63A36B012143F000430022A36357
:100F800084F8341022636EE7FF0540002DE9F04F2E
:100F900089B00D46DDF84880044691461F46FFF7AC
:100FA0008BF9002D63D094F83430012B51D1E26DD0
:100FB00009EB070100239142A3635DD80646206830
:100FC000626C032184F83410C3620023CDE9053339
:100FD0004FF0FF3302937B0203939023012A049383
:100FE00002A94FF0010318BF4FEA4929079301F006
:100FF0007BF8012F494634D920232068236301F070
:10100000FDFA226800283CD1DDF80CA040F21A3924
:1010100005E0FFF751F9801B404561D22268536B10
:1010200013EA090F104637D1536B5A04F1D5BAF1C0
:10103000000FEED005F1200B00E0206855F8043BCE
:10104000019301A901F03EF85D45F6D1AAF1200A0D
:10105000DFE7A36B43F00053A363012009B0BDE8B1
:10106000F08F10232068236301F02CFAC9E7A36BEB
:1010700043F00063A363F0E7A36B43F00073A36343
:10108000EBE72F4B9363A36B012103430022A36380
:1010900084F834102263E0E7536BDB0509D5012F98
:1010A00007D9636C032B04D001F046FB002842D122
:1010B0002068436B13F0080329D1426B12F002023F
:1010C0001AD1436B13F010032DD01D4B8363A36B18
:1010D000012143F01003A36384F834102263BCE7BA
:1010E0002368174A9A63A16BA1630122002384F845
:1010F000342003202363B1E7114A8263A26B0121EC
:1011000042F00202A26384F834102363A5E70C4B7B
:101110008363A36B012143F008030022A36384F8D7
:101120003410226399E740F23A5101228163184654
:1011300084F8342092E72368014A9A63A3E700BF4A
:10114000FF054000704700BF704700BF704700BFF9
:1011500038B5846B216D206840F23A5383630904EB
:1011600001F06EFF054680B1A36B0121034300220D
:10117000A36384F834102263A36B204613B905F0EF
:101180008DFC38BDFFF7E2FF38BD2068294600F02E
:10119000A7FFC0F3432001230538984284F8343078
:1011A0002563E9D8206801F0C7FAA36B0343A36362
:1011B000E2E700BF2DE9F04104460068256B436B70
:1011C0001A0482B01DD52B0700F1C080436BDB05EC
:1011D0006BD54FF480738363C36B23F4434323F0D5
:1011E0003A03C363C36A23F00103C362290605D52A
:1011F000AA0600F1EC80AB0700F0BB8002B0BDE8AE
:10120000F081436BDF0523D54FF480738363C36B99
:1012100023F4434323F03A03C363C36A2E0723F046
:101220000103C362E2D515F0220F40F0B08040F216
:101230003A5383630122002384F834202046236339
:10124000AC0700F09F80FFF77FFF02B0BDE8F081A0
:10125000436B5F042AD52E0728D5666A002ECDD0B1
:10126000276A07F1040807F1240500E0206818F850
:10127000043C019318F8032C43EA0223019318F865
:10128000022C43EA0243019318F8012C01A943EA16
:10129000026308F10408019300F014FFA845E5D1AA
:1012A0002037203EC4E90876A8E7436B426B40F242
:1012B0003A231A42A2D0436B990703D5A36B43F09C
:1012C0000203A363436B1A0703D5A36B43F0080320
:1012D000A363436B9B0603D5A36B43F02003A36377
:1012E000436BDF0603D5A36B43F01003A363436B8B
:1012F0009E0503D5A36B43F00803A36340F23A7342
:101300008363C36B23F44E7323F00203C36301F0C2
:1013100013FAA36B290743EA0003A3633DD42A060B
:101320007FF56CAF15F0300F47D115F003055BD09A
:10133000206C324B0365FFF797F800283FF45EAF4F
:10134000206C02B0BDE8F041FFF702BFD4E90A57B4
:10135000002F3FF453AF05F1200600E0206800F0B5
:10136000ADFE45F8040BAE42F8D1203FC4E90A6750
:1013700044E72268D36A012123F00803D3622046A0
:1013800084F83410FFF7DEFE02B0BDE8F08101F012
:10139000D3F9034650B9206849E70122002384F8B5
:1013A000342020462363FFF7D1FE27E7A26B1343C7
:1013B0002046A363FFF7CAFEEDE7E06B104B036521
:1013C000FFF752F800283FF419AFE06BB9E701F0DE
:1013D000B3F9034600283FF40EAFA26B1343204637
:1013E000A363FFF7B3FE06E70123A563204684F855
:1013F0003430256305F052FB00E700BF05140008F8
:101400005111000838B5846B216D206840F23A53C1
:101410008363090401F014FE054680B1A36B01212A
:1014200003430022A36384F834102263A36B204695
:1014300013B905F033FB38BDFFF788FE38BD2068CF
:10144000294600F04DFEC0F34320012305389842A1
:1014500084F834302563E9D8206801F06DF9A36B76
:101460001843A063E2E700BF426E10B40346940F36
:10147000C2F383600C704870C2F30164C2F307408A
:101480008C70C870C2F30720D2B208714A719A6E8C
:10149000140DCC80C2F303440C72C2F3C0344C72FE
:1014A000C2F380348C72C2F34034CC720020C2F399
:1014B00000340C734873586C00286FD1D86E40F616
:1014C000FC7404EA820242EA9072C0F3C2640A61C8
:1014D0000C75C0F34252C0F302644C758A75C0F3B8
:1014E0008244C0F3C232CC750A760C690A7E02F0DF
:1014F00007020232013494405C6591F808C0012271
:101500000CF00F0C02FA0CF29A65520A04FB02F27C
:10151000DA65C0F380324FF400741C664A76C0F37B
:10152000C61200F07F008A76C8761B6FDC0FC3F30B
:1015300041720C774A77C3F38264C3F383528C778A
:101540000020CA77C3F34054C3F3004281F820401F
:1015500081F82100C3F3C03481F82220C3F3803224
:1015600081F8234081F82420C3F34034C3F30032D0
:1015700081F8254081F82620C3F38124C3F301229A
:1015800081F82740C3F3460381F82820012281F81F
:10159000293081F82A205DF8044B704701280FD1CB
:1015A000D86E120402F47C1242EA10420A610A69FF
:1015B000013292024FF40074C3E916425A65A8E75B
:1015C0001A68064991639A6B012142F080529A632E
:1015D00083F8341008465DF8044B7047FF0540005F
:1015E000F0B5002299B07623CDE90A2300230993B0
:1015F00009AA054607CA8DE80700CDE90633089316
:1016000006AB0ECB286800F03DFD18B10124204642
:1016100019B0F0BD794E044601272868C6F8A040ED
:1016200000F056FD0220C6F8A070FEF74BFE2868B9
:10163000059401F0C3F9044658B9286801F0E4F9AB
:1016400070B9AF642868002101F01AFA90B14FF028
:101650008054012385F83430AB6B2343AB63D5E76B
:101660002868AC6401F0AAF9002840F0C280AB6C95
:10167000012BE7D0059B4FF6FE76B3421DD8604F95
:1016800012E0286801F09AFA21460028DFD1286884
:1016900000F026FD059B01330593059BB3420446EC
:1016A0004FEAD07209D842B90021286801F0E8F960
:1016B000394604460028E4D0CBE7059A4FF6FE737E
:1016C0009A4200F29880C4F38074012328686C6405
:1016D000ADF8123000F000FD002800F084806B6C43
:1016E0002868032B2FD1042100F0FAFC000DE864D8
:1016F0000DA92846FFF7B8FE0446002876D12A6DCA
:1017000028681204234601F0BBF8F8B92A462B1DBD
:1017100052F8106B07CA8DE8070030460ECB00F078
:10172000B1FC28684FF4007100F0F4FC00283FF48D
:101730006EAF2B68334A9A63AB6B01220343AB63F2
:1017400085F8342062E701F0B1FB30B1012385F860
:101750003430AB6B0343AB6358E70146286800F0B5
:10176000BFFC034604216B67286800F0B9FC034600
:10177000AB670821286800F0B3FC0C21E8672868F3
:1017800000F0AEFC6B6CC5F88000032B2868AAD073
:101790000DF1120101F0FEFB0028D7D16B6C286817
:1017A000032BA0D0BDF812102965090401F0B6FB87
:1017B0000028CBD10146286800F092FC03460421A2
:1017C0006B66286800F08CFC0346AB66082128682D
:1017D00000F086FC0C21E866286800F081FC0346D6
:1017E0002B6728687FE74FF08060AFE74FF08050AD
:1017F000ACE704462DE74FF080742AE700802542CD
:10180000000010C1FF054000C8B110B590F8343099
:10181000044603F0FF0273B1032384F834302046FA
:10182000FFF7DEFE28B90123A063206384F834307B
:1018300010BD012010BD027705F0ECFBECE70120A4
:10184000704700BFF0B4D0E911C7D0E91365D0E903
:101850001542D0E91730C1E900C7C1E90265C1E905
:101860000442C861F0BC00208B617047000000009A
:1018700070B5426C0323032A80F834308AB00368C1
:1018800004460E4625D0B1F5805F22D0B1F5006F39
:101890005FD000293DD0826B42F000628263A56B6D
:1018A000F5B96169A2690796CDE90812D4E9011278
:1018B000CDE90412E26806920AAA12E907008DE84F
:1018C000070004AE184696E80E0000F0DBFB236824
:1018D0000CE0A26B42F08052A263A56B002DE0D019
:1018E000012231499963154684F834204FF4007180
:1018F000184600F00FFC30B123682B4A9A63A36BA3
:1019000003430125A3630123284684F834300AB039
:1019100070BD002218460023CDE9042300F0E0FB4F
:10192000820135D404A92046FFF7CAF960B9059BA6
:10193000DB0330D5216D2068090401F0A1F818B946
:101940000146206801F074F9A26B23680243A26388
:10195000C3E79FED137B184600218DED047B00F05B
:10196000BFFB800114D404A92046FFF7A9F9002881
:10197000EAD1059B59030ED5216D2068090401F0B9
:101980007FF80028E0D12068022101F051F9DBE75F
:101990004FF40060D8E74FF08060D5E7AFF30080E8
:1019A0000000000000000000FF054000016D10B5C0
:1019B00009040446006801F043FB014620B1A36B13
:1019C0000B430020A36310BD206800F089FBC0F327
:1019D000432010BD002800F0868038B590F83D30D7
:1019E000044603F0FF02002B78D02368E06824222D
:1019F00084F83D20DA6822F40052DA601969A2689E
:101A000021F4405101432069196102436069D9689A
:101A10000243E06921F4164121F00C0102430A431C
:101A2000DA605A69A069314922F4407202438B425C
:101A30005A6135D02E4A934232D0FFF721F9E2693C
:101A40001921B2F5004FD4E90053A0FB01012AD0BF
:101A50009A009B0FFEF7ACFB264AA2FB00135B0922
:101A6000642101FB130000013230A2FB00201B01A6
:101A700003EB5013AB602B6923F490432B616B692C
:101A800023F02A036B61EB680021202243F400530A
:101A9000EB60216484F83D2084F83E20084638BD80
:101AA000FFF7FEF8CBE7DA184FF000035B41FEF7D3
:101AB0007FFB104AA2FB00314909642303FB110399
:101AC000DB003233A2FB0323C3F342121B0902EBF8
:101AD000011203F4F8731344AB60CCE780F83C20A8
:101AE00005F06CFB81E70120704700BF001001404A
:101AF000001401401F85EB512DE9F843044690F88E
:101B00003D0020287AD1884600293FD01746002A78
:101B10003CD01D4694F83C30012B6FD0012384F853
:101B20003C304FF000092123C4F8409084F83D3048
:101B3000FEF7C2FBA368A784B3F5805FE78406467F
:101B40006AD0E28C002392B284F83C30236892B1D0
:101B5000691C25D11A681206FCD5B8F1000F25D0F2
:101B600018F8012B5A60E28C013A92B2E284E28CBE
:101B700092B2002AECD1681C4AD11A685106FCD5F1
:101B8000202384F83D300020BDE8F8830120BDE823
:101B9000F88385B1FEF790FB801B854223680AD34A
:101BA0001A681706F5D5B8F1000FD9D139F8022B0C
:101BB000C2F30802D6E703F10C0252E8002F22F428
:101BC000D07203F10C0040E800210029F3D103F1A9
:101BD000140252E8002F22F0010203F1140040E841
:101BE00000210029F3D1202384F83D3084F83E30D1
:101BF000002384F83C300320BDE8F8830220BDE8D0
:101C0000F8837DB1FEF758FB831B9D42236809D3FF
:101C10001A685206F5D5B3E72369002B91D1C14666
:101C200098468EE703F10C0252E8002F22F4D0729E
:101C300003F10C0040E800210029F3D103F1140264
:101C400052E8002F22F0010203F1140040E80021C5
:101C50000029F3D1C7E700BF704700BF704700BF3E
:101C6000704700BF08B5806B0023C385C384FFF7AE
:101C7000F7FF08BD704700BF83680168826AB3F54B
:101C8000805F41D0002B38D04B6803F07F03137086
:101C9000826A0132C38D8262013B9BB2C385002BF5
:101CA00031D10268D16821F0200100B5D160D1683E
:101CB00021F48071D16051694FF0200C21F00101B5
:101CC000516180F83EC0016B012983B025D10363C7
:101CD00002F10C0353E8003F23F0100302F10C0C57
:101CE0004CE800310029F3D11368DB061AD4818D4A
:101CF000FFF7C0FF03B05DF804FB0369002BC3D1FD
:101D00004B68DBB2C3E770470369002BF8D14B681F
:101D1000C3F3080322F8023BBCE7FFF79FFF03B0C1
:101D20005DF804FB0023019313680193536801934A
:101D3000019BDCE730B503681A68DD68596912F069
:101D40000F0F83B004466ED1910602D5A90600F1AB
:101D50009F80216B01290BD0100602D5290600F1C6
:101D6000A180520602D5680600F1BB8003B030BDE9
:101D7000D006F1D5E906EFD5002201921A6801924A
:101D80005A680192019A5A69550640F13481A06B54
:101D90000268526892B2002AE8D0A18D9142E5D93A
:101DA000E285C269B2F5807F36D003F10C0252E8B9
:101DB000002F22F4807203F10C0545E80021002970
:101DC000F3D103F1140252E8002F22F0010203F1D3
:101DD000140545E800210029F3D103F1140252E86B
:101DE000002F22F0400203F1140545E800210029EC
:101DF000F3D1202284F83E20216303F10C0252E843
:101E0000002F22F0100203F10C0545E80021002903
:101E1000F3D1FEF7DFFAA18DE38DC91A204689B20E
:101E2000FFF728FFA2E711F0010178D115F4907FA8
:101E30008FD0D0070AD5E80540F1D980206C40F05A
:101E40000100206450075BD500296CD1900770D544
:101E5000100700F1C980216C002987D0910609D5AF
:101E6000AA0607D594F83E20222A03D12046FFF780
:101E700003FF23685A69216C02F0400201F0080157
:101E800052EA01055CD12046FFF7EAFE25646DE7C2
:101E900090F83E30222B7FF469AF03B0BDE83040AC
:101EA000FFF7EABE94F83D20212A7FF45FAFA168D6
:101EB000226AB1F5805F00F0D780511C2162127850
:101EC0005A60E28C013A92B2E284002A7FF44EAF6B
:101ED000DA6822F08002DA60DA6842F04002DA6002
:101EE00044E7DA68202122F04002DA60204684F8D4
:101EF0003D10FFF7B1FE39E7E8059FD4500712D433
:101F0000900716D50029A3D0216C41F0040121646B
:101F10001107A0D5216C41F0080121649BE7D0078F
:101F2000EAD450075BD5206C40F002002064900793
:101F3000EAD410078FD505F0200008438BD0E9E7DD
:101F400003F10C0252E8002F22F4907203F10C000E
:101F500040E800210029F3D103F1140252E8002FD8
:101F600022F0010203F1140040E800210029F3D11E
:101F7000226B012A22D00022202184F83E10226305
:101F80005A69550627D503F1140252E8002F22F0B2
:101F9000400203F1140040E800210029F3D1A06BB6
:101FA000C8B1374B0365FEF75FFA00283FF4DEAE99
:101FB000A06B036D03B0BDE83040184703F10C027D
:101FC00052E8002F22F0100203F10C0040E800213B
:101FD0000029F3D1CFE72046FFF742FEC6E691077E
:101FE00092D4110796D436E7A90693D433E7500765
:101FF0003FF52CAF84E7E18DE28DA08D92B289B2DE
:10200000002A3FF4B3AE411A89B200293FF4AEAEC4
:1020100003F10C0252E8002F22F4907203F10C0538
:1020200045E800200028F3D103F1140252E8002F04
:1020300022F0010203F1140545E800200028F3D145
:10204000202284F83E20206303F10C0252E8002F86
:1020500022F0100203F10C0545E800200028F3D11E
:102060002046FFF707FE81E6216900297FF425AFAE
:1020700032F8021BC1F308015960226221E700BF58
:10208000651C000884B010B40DF1080C8CE80E003B
:102090000B46049913430B43DDE905414268234392
:1020A0000B4307995DF8044B22F4FD420B4322F0E9
:1020B0007F021343436004B000207047D0F88000D3
:1020C000704700BF0B68C0F880300020704700BF29
:1020D0000323036000207047006800F0030070478E
:1020E00014304058704700BF10B4D1E900428B68EB
:1020F0004462CC6882622343D1E90441C26A23432B
:1021000022F0F7020B431343C3625DF8044B002037
:10211000704700BF4A4A8160C3684A49126823F485
:102120007F63A1FB021223F00F03520A41F28831B0
:1021300043F48A6301FB02F2C360531E4AB1426B4F
:1021400012F0450F03F1FF3301D0110504D55A1CDD
:10215000F5D14FF000407047436B5A073ED4436BB4
:10216000DB0707D4C52383630369DBB2102B04D0DC
:102170000120704701238363FAE74369324818401E
:1021800058B3002B2EDB59002FD49A002FD4D9003E
:102190002FD41A0130D4590131D4DA0132D41902C2
:1021A00033D45A0234D499023ED4DA0239D45903D2
:1021B00034D49A032FD4D9033FD41A043AD45904FF
:1021C00035D49A0407D413F0080F0CBF4FF48030B5
:1021D0004FF4000070474FF480007047042383637E
:1021E000184670474FF000707047402070478020BD
:1021F00070474FF4807070474FF4007070474FF491
:10220000806070474FF4006070474FF48050704713
:102210004FF4005070474FF4802070474FF4003067
:1022200070474FF4004070474FF4804070474FF4C0
:10223000001070474FF4801070474FF40020704733
:1022400030000020D34D621008E0FFFD81604B4A52
:10225000C3684B49126823F47F63A1FB021223F089
:102260000F0343F48A63520A41F2883143F00103B9
:1022700001FB02F2C360531E4AB1426B12F0450FDC
:1022800003F1FF3301D0110504D55A1CF5D14FF0ED
:1022900000407047436B5A073ED4436BDB0707D4BB
:1022A000C52383630369DBB2112B04D0012070477F
:1022B00001238363FAE743693248184058B3002B7F
:1022C0002EDB59002FD49A002FD4D9002FD41A0115
:1022D00030D4590131D4DA0132D4190233D45A023C
:1022E00034D499023ED4DA0239D4590334D49A034F
:1022F0002FD4D9033FD41A043AD4590435D49A04BC
:1023000007D413F0080F0CBF4FF480304FF40000D7
:1023100070474FF48000704704238363184670476A
:102320004FF00070704740207047802070474FF496
:10233000807070474FF4007070474FF480607047B2
:102340004FF4006070474FF4805070474FF40050D6
:1023500070474FF4802070474FF4003070474FF4BF
:10236000004070474FF4804070474FF400107047B2
:102370004FF4801070474FF4002070473000002069
:10238000D34D621008E0FFFD81604B4AC3684B49A2
:10239000126823F47F63A1FB021223F00F0343F4BE
:1023A0008A63520A41F2883143F0020301FB02F2D0
:1023B000C360531E4AB1426B12F0450F03F1FF3365
:1023C00001D0110504D55A1CF5D14FF000407047DB
:1023D000436B5A073ED4436BDB0707D4C5238363A3
:1023E0000369DBB2122B04D0012070470123836301
:1023F000FAE743693248184058B3002B2EDB5900E6
:102400002FD49A002FD4D9002FD41A0130D45901D7
:1024100031D4DA0132D4190233D45A0234D49902B5
:102420003ED4DA0239D4590334D49A032FD4D903D1
:102430003FD41A043AD4590435D49A0407D413F07B
:10244000080F0CBF4FF480304FF4000070474FF47A
:102450008000704704238363184670474FF0007074
:10246000704740207047802070474FF4807070475D
:102470004FF4007070474FF4806070474FF4006075
:1024800070474FF4805070474FF4005070474FF43E
:10249000802070474FF4003070474FF40040704781
:1024A0004FF4804070474FF4001070474FF4801095
:1024B00070474FF40020704730000020D34D621069
:1024C00008E0FFFD4A4A8160C3684A49126823F464
:1024D0007F63A1FB021223F00F03520A41F28831FD
:1024E00043F48B6301FB02F2C360531E4AB1426B9B
:1024F00012F0450F03F1FF3301D0110504D55A1C2A
:10250000F5D14FF000407047436B5A073ED4436B00
:10251000DB0707D4C52383630369DBB2182B04D020
:102520000120704701238363FAE74369324818406A
:1025300058B3002B2EDB59002FD49A002FD4D9008A
:102540002FD41A0130D4590131D4DA0132D419020E
:1025500033D45A0234D499023ED4DA0239D459031E
:1025600034D49A032FD4D9033FD41A043AD459044B
:1025700035D49A0407D413F0080F0CBF4FF4803001
:102580004FF4000070474FF48000704704238363CA
:10259000184670474FF00070704740207047802009
:1025A00070474FF4807070474FF4007070474FF4DD
:1025B000806070474FF4006070474FF48050704760
:1025C0004FF4005070474FF4802070474FF40030B4
:1025D00070474FF4004070474FF4804070474FF40D
:1025E000001070474FF4801070474FF40020704780
:1025F00030000020D34D621008E0FFFD81604B4A9F
:10260000C3684B49126823F47F63A1FB021223F0D5
:102610000F0343F48B63520A41F2883143F0010304
:1026200001FB02F2C360531E4AB1426B12F0450F28
:1026300003F1FF3301D0110504D55A1CF5D14FF039
:1026400000407047436B5A073ED4436BDB0707D407
:10265000C52383630369DBB2192B04D001207047C3
:1026600001238363FAE743693248184058B3002BCB
:102670002EDB59002FD49A002FD4D9002FD41A0161
:1026800030D4590131D4DA0132D4190233D45A0288
:1026900034D499023ED4DA0239D4590334D49A039B
:1026A0002FD4D9033FD41A043AD4590435D49A0408
:1026B00007D413F0080F0CBF4FF480304FF4000024
:1026C00070474FF4800070470423836318467047B7
:1026D0004FF00070704740207047802070474FF4E3
:1026E000807070474FF4007070474FF480607047FF
:1026F0004FF4006070474FF4805070474FF4005023
:1027000070474FF4802070474FF4003070474FF40B
:10271000004070474FF4804070474FF400107047FE
:102720004FF4801070474FF40020704730000020B5
:10273000D34D621008E0FFFD002310B44C4A8360C3
:10274000C36812684B494C4C23F47F6323F00F039A
:10275000A1FB021243F48963520A43F0040304FB11
:1027600002F2C360531E4AB1426B12F0450F03F1EF
:10277000FF3301D0120506D5591CF5D14FF00040AA
:102780005DF8044B7047436B5C073CD4436BD9073F
:1027900007D4C52383630369DBB20C2B04D001206B
:1027A000EEE701238363FAE74369344818400028C1
:1027B000E6D0002B2BDB5A002CD49C002CD4D90063
:1027C0002CD41A012DD45C012ED4D9012FD41A0295
:1027D00030D45C0231D499023BD4DA0236D45C03A3
:1027E00031D499032CD4DA033FD41C043AD45904CD
:1027F00035D49A0430D413F0080F0CBF4FF4803056
:102800004FF40000BCE7042383631846B8E74FF099
:102810000070B5E74020B3E78020B1E74FF4807047
:10282000AEE74FF40070ABE74FF48060A8E74FF4D9
:102830000060A5E74FF48050A2E74FF400509FE7F7
:102840004FF480209CE74FF4003099E74FF40040AC
:1028500096E74FF4804093E74FF4800090E74FF401
:1028600000108DE74FF480108AE74FF4002087E7CF
:1028700030000020D34D621000E1F50508E0FFFDB7
:1028800082604B4AC3684B49126823F47F63A1FB03
:10289000021223F00F0343F48863520A41F2883195
:1028A00043F0070301FB02F2C360531E4AB1426BBF
:1028B00012F0450F03F1FF3301D0110504D55A1C66
:1028C000F5D14FF000407047436B5A073ED4436B3D
:1028D000DB0707D4C52383630369DBB2072B04D06E
:1028E0000120704701238363FAE7436932481840A7
:1028F00058B3002B2EDB59002FD49A002FD4D900C7
:102900002FD41A0130D4590131D4DA0132D419024A
:1029100033D45A0234D499023ED4DA0239D459035A
:1029200034D49A032FD4D9033FD41A043AD4590487
:1029300035D49A0407D413F0080F0CBF4FF480303D
:102940004FF4000070474FF4800070470423836306
:10295000184670474FF00070704740207047802045
:1029600070474FF4807070474FF4007070474FF419
:10297000806070474FF4006070474FF4805070479C
:102980004FF4005070474FF4802070474FF40030F0
:1029900070474FF4004070474FF4804070474FF449
:1029A000001070474FF4801070474FF400207047BC
:1029B00030000020D34D621008E0FFFD002383604B
:1029C0000F4BC2680F491B6822F47F62A1FB0313FF
:1029D00022F00F0242F480625B0A41F28831C26049
:1029E00001FB03F302E0426B120604D4013BFAD26E
:1029F0004FF000407047C52383630020704700BF3D
:102A000030000020D34D62104FF4D5731A4A836012
:102A1000C36812680146194823F47F63A0FB0202D1
:102A200023F00F03520A41F2883043F4896300FB1C
:102A300002F2CB60531E4AB14A6B12F0450F03F10C
:102A4000FF3301D0100504D55A1CF5D14FF00040DA
:102A500070474B6B5A070CD4486B10F0010005D13E
:102A60004B6B5B06F4D540238B63704701238B636C
:102A7000704704208863704730000020D34D6210F7
:102A800081604B4AC3684B49126823F47F63A1FB02
:102A9000021223F00F0343F48E63520A41F288318D
:102AA00043F0070301FB02F2C360531E4AB1426BBD
:102AB00012F0450F03F1FF3301D0110504D55A1C64
:102AC000F5D14FF000407047436B5A073ED4436B3B
:102AD000DB0707D4C52383630369DBB2372B04D03C
:102AE0000120704701238363FAE7436932481840A5
:102AF00058B3002B2EDB59002FD49A002FD4D900C5
:102B00002FD41A0130D4590131D4DA0132D4190248
:102B100033D45A0234D499023ED4DA0239D4590358
:102B200034D49A032FD4D9033FD41A043AD4590485
:102B300035D49A0407D413F0080F0CBF4FF480303B
:102B40004FF4000070474FF4800070470423836304
:102B5000184670474FF00070704740207047802043
:102B600070474FF4807070474FF4007070474FF417
:102B7000806070474FF4006070474FF4805070479A
:102B80004FF4005070474FF4802070474FF40030EE
:102B900070474FF4004070474FF4804070474FF447
:102BA000001070474FF4801070474FF400207047BA
:102BB00030000020D34D621008E0FFFD41F00041DD
:102BC00041F480118160184AC3681849126823F4DF
:102BD0007F63A1FB021223F00F0343F48D63520ABB
:102BE00041F2883143F0010301FB02F2C3608446E5
:102BF000531E52B1DCF8342012F0450F03F1FF33BD
:102C000001D0120504D5591CF4D14FF00040704793
:102C1000DCF8340010F0040015BF0420C523CCF804
:102C20003800CCF83830704730000020D34D6210A7
:102C300081604B4AC3684B49126823F47F63A1FB50
:102C4000021223F00F0343F48863520A41F28831E1
:102C500043F0060301FB02F2C360531E4AB1426B0C
:102C600012F0450F03F1FF3301D0110504D55A1CB2
:102C7000F5D14FF000407047436B5A073ED4436B89
:102C8000DB0707D4C52383630369DBB2062B04D0BB
:102C90000120704701238363FAE7436932481840F3
:102CA00058B3002B2EDB59002FD49A002FD4D90013
:102CB0002FD41A0130D4590131D4DA0132D4190297
:102CC00033D45A0234D499023ED4DA0239D45903A7
:102CD00034D49A032FD4D9033FD41A043AD45904D4
:102CE00035D49A0407D413F0080F0CBF4FF480308A
:102CF0004FF4000070474FF4800070470423836353
:102D0000184670474FF00070704740207047802091
:102D100070474FF4807070474FF4007070474FF465
:102D2000806070474FF4006070474FF480507047E8
:102D30004FF4005070474FF4802070474FF400303C
:102D400070474FF4004070474FF4804070474FF495
:102D5000001070474FF4801070474FF40020704708
:102D600030000020D34D621008E0FFFD0023836097
:102D70004B4AC3684B49126823F47F63A1FB0212DC
:102D800023F00F0343F48E63520A41F2883143F07B
:102D9000030301FB02F2C360531E4AB1426B12F0FF
:102DA000450F03F1FF3301D0110504D55A1CF5D1AD
:102DB0004FF000407047436B5A073ED4436BDB072C
:102DC00007D4C52383630369DBB2332B04D001200E
:102DD000704701238363FAE743693348184058B3C7
:102DE000002B2EDB59002FD49A002FD4D9002FD4DA
:102DF0001A0130D4590131D4DA0132D4190233D452
:102E00005A0234D499023ED4DA0239D4590334D464
:102E10009A032FD4D9033FD41A043AD4590435D491
:102E20009A0407D413F0080F0CBF4FF480304FF40E
:102E3000000070474FF480007047042383631846F6
:102E400070474FF0007070474020704780207047F7
:102E50004FF4807070474FF4007070474FF48060FB
:102E600070474FF4006070474FF4805070474FF444
:102E7000005070474FF4802070474FF40030704787
:102E80004FF4004070474FF4804070474FF40010FB
:102E900070474FF4801070474FF40020704700BF18
:102EA00030000020D34D621008E0FFFD0023836056
:102EB000184AC36812680146174823F47F63A0FBD1
:102EC000020223F00F0343F49863520A41F2883060
:102ED00043F0020300FB02F2CB60531E4AB14A6B7F
:102EE00012F0450F03F1FF3301D0120504D5581C31
:102EF000F5D14FF0004070474B6B5B0707D4486B30
:102F000010F0010014BF0123C5238B637047042018
:102F10008863704730000020D34D621081601B4AE7
:102F2000C3681B49126823F47F63A1FB021223F0DC
:102F30000F0343F49963520A41F2883143F00103CD
:102F400001FB02F2C3608446531E52B1DCF8342008
:102F500012F0450F03F1FF3301D0120504D5591CBF
:102F6000F4D14FF000407047DCF834305B0709D4EF
:102F7000DCF8340010F0010014BF0123C523CCF8A5
:102F8000383070470420CCF83800704730000020FB
:102F9000D34D6210002310B4274A8360C368274CC6
:102FA000126823F47F63A4FB024223F00F0343F46F
:102FB0008863520A41F2883443F0030304FB02F2AF
:102FC000C360531E4AB1426B12F0450F03F1FF3349
:102FD00001D0120506D55C1CF5D14FF000405DF81C
:102FE000044B7047436B5B071BD4436BDC0705D472
:102FF0000369DBB2032B04D00120F0E701238363D4
:10300000FAE7C5238363436913F4604010D05A0480
:103010000BD413F4004F0CBF4FF480304FF48050AA
:10302000DDE7042383631846D9E74FF40050D6E761
:103030001B0C0B80D3E700BF30000020D34D621083
:1030400081604B4AC3684B49126823F47F63A1FB3C
:10305000021223F00F0343F48963520A41F28831CC
:1030600043F0050301FB02F2C360531E4AB1426BF9
:1030700012F0450F03F1FF3301D0110504D55A1C9E
:10308000F5D14FF000407047436B5A073ED4436B75
:10309000DB0707D4C52383630369DBB20D2B04D0A0
:1030A0000120704701238363FAE7436932481840DF
:1030B00058B3002B2EDB59002FD49A002FD4D900FF
:1030C0002FD41A0130D4590131D4DA0132D4190283
:1030D00033D45A0234D499023ED4DA0239D4590393
:1030E00034D49A032FD4D9033FD41A043AD45904C0
:1030F00035D49A0407D413F0080F0CBF4FF4803076
:103100004FF4000070474FF480007047042383633E
:10311000184670474FF0007070474020704780207D
:1031200070474FF4807070474FF4007070474FF451
:10313000806070474FF4006070474FF480507047D4
:103140004FF4005070474FF4802070474FF4003028
:1031500070474FF4004070474FF4804070474FF481
:10316000001070474FF4801070474FF400207047F4
:1031700030000020D34D621008E0FFFD2DE9F04F34
:10318000DFF81C9299F8004083B082468B46904647
:10319000E4B1EFF311834FF0200181F311880AEBC2
:1031A0004A0609EBC6060093F76A012F4FEA4A0563
:1031B00000F0B080022F72D0002F41D00027009B7A
:1031C00083F31188384603B0BDE8F08F6F49086873
:1031D000C9F807000320C9F8100004F0FF02C9F87D
:1031E00014006B496B48C9F818104FF48064C9F893
:1031F0001C00C9F820406848C9F82820C9F82420D4
:10320000C9F82C20C9F860101021C9F86400C9F869
:103210006810C9F87020C9F86C20C9F87420BFF391
:103220005F8F5E4A92E80300C9F80000A9F8041015
:10323000BFF35F8F202289F80620BFF35F8FA8E7D6
:10324000B26A746AA2429CBF306A1218013A121B19
:103250009045B4D805EB0A0209EBC202136A0AF1E1
:10326000010202EB420209EBC2061F1B7068B8455F
:1032700020444444C0F08280E41A3A46594604F09F
:1032800033F870680BEB0701224604F02DF8BFF30A
:103290005F8F554409EBC50547466C628FE70AF11D
:1032A000010A0AEB4A0A756A4FEACA0A0027B36A9A
:1032B000346AAB4203F1FF329CBF1B1903F1FF33A9
:1032C000A4EB05048CBF531B5B1B09EB0A024445AE
:1032D00028BF44469C42506828BF1C462844594693
:1032E000224604F001F8336A25449D422744A34452
:1032F000A8EB040806D0BFF35F8F7562B8F1000F2A
:10330000D5D15CE7BFF35F8F00257562B8F1000F80
:10331000CDD154E7B76AD6E90864A74298BFBF1970
:10332000013F3F1B474528BF47460AF1010808EB0C
:10333000480809EBC808321BD8F80400974220441B
:1033400014D359460192A41B03F0CEFF019AD8F87A
:1033500004003C440BEB0201224603F0C5FFBFF31F
:103360005F8F554409EBC5056C6228E759463A461C
:1033700003F0BAFFBFF35F8F3C44F2E75946424681
:1033800003F0B2FFBFF35F8F83E700BFE47500086F
:10339000D87500086800002058000020E875000873
:1033A000680400201548164B0068164930B4032401
:1033B000154DC3F807004FF480601C6100225C616A
:1033C0009961124CDD61186210209A625A62DA62C9
:1033D00019665C6698661A67DA665A67BFF35F8F8C
:1033E0000B4A92E8030018609980BFF35F8F202298
:1033F0009A71BFF35F8F30BC704700BFE47500085F
:1034000068040020D87500086800002058000020DB
:10341000E87500082DE9F84F91429B46DDF82890A9
:103420000B9B0F4615460646C0F0B4800A464FF087
:103430000108B2FBF5F2954208F10108F9D9D84527
:1034400038BFD84613F0010A02D1B9F1000F70D18C
:10345000F16800296BDBBBF1010F4FF0010406D9C5
:103460000BF1FF3BBBF1010F05FB04F4F8D8B7FBF0
:10347000F4F39D4205D805FB04F4B7FBF4F39D4239
:10348000F9D9B268DFF818B108E0002927DBB4FBEE
:10349000F5F3AC4223D31C46B7FBF3F3D6F804E0B4
:1034A000501C7045BC4604FB13770CD8BCFBF4FCE5
:1034B00033681BF80C109954F168D6F804E0B0603A
:1034C0000131F16002467245DFD131683069FFF7A2
:1034D00055FEB368984253D04FF0FF33F360BAF112
:1034E000000F24D0B9F1000F21D0202402E0F368AE
:1034F000002B1CDBC14509F1FF3918D9D6E901239E
:10350000591C914207D83268D454F268B160013234
:10351000F26072680B469A42E9D131683069FFF770
:103520002DFEB368984238D04FF0FF33F360BDE80A
:10353000F88F9B0728D4202405E0F1680029F6DBEA
:10354000B9F1000F85D0C14582D9D6E90123591CB4
:10355000914209F1FF3907D83268D454F268B1605A
:103560000132F26072680B469A42E6D131683069E6
:10357000FFF704FEB3689842D6D10023B360DCE7BE
:103580000022F168B26080E7BBF1000F14BF202475
:103590003024D8E74FF0010851E70023B360A6E7D5
:1035A000F07500082DE9F04F00279DB0CDE90970B6
:1035B0000DF1300B402306460C469146CDF818B06D
:1035C0000793089714F8013B002B00F0D080252BBF
:1035D0001AD0DDE907514A1CAA4205D801370698DE
:1035E000CDE90827435411468D42EBD106990A983C
:1035F0002A46FFF7C3FDA84200F0B2804FF0FF3724
:1036000038461DB0BDE8F08F4FF00008234613F890
:10361000011BA1F123020D2A08D8DFE802F07B0785
:1036200007070707070777077F070773A1F130022E
:10363000092A4FF000050DD805EB850501EB45057E
:103640001978A1F13002092A1C46A5F1300503F1D1
:103650000103F1D92E2900F064814FF0000A01F036
:10366000FB02682A1C465DD0252963D05839CBB2AD
:10367000202BA7D82029A5D801A353F821F000BFFB
:1036800087370008C5350008C5350008C53500086E
:10369000C5350008C5350008C5350008C535000822
:1036A000C5350008C5350008C5350008F3380008E1
:1036B00087380008C5350008C5350008C53500083D
:1036C000C5350008C5350008C5350008C5350008F2
:1036D000C5350008C5350008C5350008C5350008E2
:1036E000FB370008C5350008C5350008B5370008A8
:1036F000C5350008AB370008C5350008C5350008DA
:103700008737000848F002081C467FE748F00408A5
:103710001C467BE748F008081C4677E748F001089C
:103720001C4673E714F8011B01F0FB03682BF9D06A
:1037300025299BD1DDE907535A1CAA4205D80698D2
:103740000137CDE90827C15413469D427FF43AAFB3
:1037500006990A982A46FFF711FDA8427FF44EAF5A
:103760000023089314F8013B002B7FF430AF002FA7
:103770007FF746AF089C002C40F0E980274438468C
:103780001DB0BDE8F08FD9F8000053461022016843
:103790000430CDE90058C9F8000006A8FFF73AFE4A
:1037A000099F002FBFF60EAF2AE7D9F80000534655
:1037B0000A22ECE7D9F800301A1DC9F80020D3F826
:1037C000008018F8012B002AEBD0DDE907156B1CEF
:1037D0008B4200F2A180069907F10107CDE9083775
:1037E0004A55EED11D460A982A46FFF7C7FC854286
:1037F0007FF404AF00230893E3E7D9F80030D3F84F
:1038000000800433B8F10F0FC9F8003003D94346E4
:103810001B090F2BFCD80125082301E0013B2D01DA
:10382000012BFBD1B8FBF5F10F29F8D8DDE907A290
:103830000294B34B144607E00F2D4FEA151140F2E6
:10384000CE800D46B8FBF1F1601C5045C44605FB27
:1038500011880AD8BCFBF5FC0137069913F80CC097
:1038600001F804C0CDE9080704465445E4D106999F
:103870000A982246FFF782FCA042A14B7FF4BEAE1D
:1038800000240894D8E7D9F800301A68029204336B
:10389000C9F8003082EAE273A3EBE273092B40F32C
:1038A0001281984801211A46632AA0FB03C301F143
:1038B00001014FEAD303F6DC51450B4638BF5346AE
:1038C000002D4BD1029A002AC0F28B8018F0040F11
:1038D00040F0A98008F00302022A00F0C480CDE97C
:1038E0000058029953460A2206A8FFF793FD099F44
:1038F00057E7DDE90753D9F800100A1DC9F8002081
:103900005A1CAA423FF621AF069809680137CDE953
:103910000827C154134618E78D427FF452AF069929
:1039200061E76178A1F13002092A7AD81C464FF08C
:10393000000A0AEB8A0A01EB4A0A14F8011FA1F1F6
:103940003003092BAAF1300AF3D9631C87E622461B
:1039500059463046FFF712FC274410E70299002928
:1039600008F002020CDB18F0040F09D1002A00F065
:10397000AC80BAF1000F40F0B680002FAADA3FE623
:10398000013D12B1BAF1000F9CD018F0010F99D18E
:10399000002D97D00594002D60D0AB425ED20899DF
:1039A000079A481C904205F1FF3508D80137069C5C
:1039B000CDE908074FF0200C04F801C001468A4207
:1039C000E9D106990A98CDE90323FFF7D7FB039ABB
:1039D000049B90427FF412AE00220892DBE7029C27
:1039E000DFE652420292DDE9072101F1010C944524
:1039F00006D801370698CDE908C72D2747546146F8
:103A00008A427FF467AF06990A9804930392FFF7FE
:103A1000B5FB039A049B90427FF4F0AD002208921C
:103A200058E7013319E6DDE907C2511C614506D8A4
:103A300001370698CDE908172B2787540A466245B7
:103A40007FF448AF06990A9804930392FFF796FB18
:103A5000039A049B82427FF4D1ADDFE7059C002FDF
:103A6000FFF6CEAD2EE7BAF1000F7FF438AF002D90
:103A70003FF435AFCDF80C90A1461C4604E0099FF9
:103A8000002FFFF6BDAD9DB3AC423DD2089A079F13
:103A9000501CB84205F1FF3508D80999089001314A
:103AA000099106994FF030038B5402469742E6D1B4
:103AB00006990A983A46FFF761FBB8427FF49EAD3B
:103AC00000220892DBE70121F6E618F0010F3FF42F
:103AD00061AF08F00302022A7FF401AFBAF1000FD0
:103AE0007FF4FDAEC6E718F0010F3FF453AFB6E721
:103AF0004C46DDF80C90002FFFF682ADEFE600BFDC
:103B0000F0750008CDCCCCCC4C46099FDDF80C906C
:103B1000F1E700BF0EB400B582B003AB01AA53F8C1
:103B2000041B0193FFF73EFD02B05DF804EB03B008
:103B3000704700BF034B03EB800203445268187ABE
:103B40005368184738050020064B1A5C42B903EB4E
:103B5000800201211954526803441268187A1047F0
:103B6000002070473805002030B4054C04EB800578
:103B700004446D68207AAC68A44630BC604700BF3E
:103B80003805002030B4054C04EB800504446D6812
:103B9000207AEC68A44630BC604700BF380500209E
:103BA000044B03EB000C03EB80039CF808005B68FC
:103BB0001B691847380500200246294BF0B41868E5
:103BC0001568854224D01C69AC4206D000282FD04D
:103BD000002C41D00020F0BC70475E699768BE425F
:103BE000F4D19E695769BE4208BF4FF0010CEDD178
:103BF00003EB0C124FEA0C149289A1B1002AE9D10F
:103C00000CF101004FF480722344F0BC9A8170479C
:103C100094685E68A642D6D154699E68A642D2D105
:103C20004FF0000CE4E7013292B20CF10100EBE737
:103C3000844601204FEA0C1400291D5195685269F1
:103C400003EB0C11C1E901524FF000028A8114BF4D
:103C50004FF480720122D7E702204FF0010CE9E710
:103C60001005002070B54FF0FF360023B142044626
:103C7000C370066322D1B4F832224AF655239A4221
:103C80001AD194F83430E92B07D0636B134A03F050
:103C9000FF13934201D0022070BDD4F86A30104A5D
:103CA00023F07F43934217D0D4F886000D4BC01AFF
:103CB00018BF0120400070BD032070BD0D460A46AC
:103CC0004078012304F13401FFF74EFF10B1266361
:103CD000042070BD2563CEE7002070BDEB0090008E
:103CE0004641540046415433F8B5C37804465BB9A5
:103CF0002378032B2AD0002260781146FFF750FF6B
:103D0000003818BF0120F8BD056B00F1340701230E
:103D100040782A463946FFF735FFA8B9626AE36959
:103D2000E070AA1A9A42E3D2A678012E01D8DFE702
:103D3000E36960781D442A460123013E3946FFF7B6
:103D400021FF012EF4D1D3E70120F8BD2579012D03
:103D5000D1D104F134064FF400720021304603F053
:103D600096FAD4E90432C4F81C22226A0A490B48A4
:103D7000616301324AF65521A4F83212C4F82032A8
:103D8000C4F818022B46607822633146FFF7FAFE2A
:103D900000232371AFE700BF52526141727241614B
:103DA0002DE9F041066B8E4202D10020BDE8F08182
:103DB00004460D46E378407804F1340763B92A4697
:103DC00001233946FFF7D0FE00281CBF4FF0FF3516
:103DD00001202563BDE8F081012332463946FFF713
:103DE000D1FED0B9626AE369E070B21A9A4212D287
:103DF00094F80280B8F1010F01D80CE0E369607813
:103E00001E443246012308F1FF383946FFF7BAFE57
:103E1000B8F1010FF2D16078D1E70120C6E700BF09
:103E20002DE9F041046800230B6084B125781F2D33
:103E300013D92B46A44603E01CF8013F1F2B0CD9D5
:103E40003A2BF9D1302D02D10134A44502D00B20F8
:103E5000BDE8F0810CF1010303609E4B1C68002C4F
:103E600000F0C8800C60237802F0FE0553B1607842
:103E7000FFF760FEC30705D415B1470700F1B7800F
:103E800000208EE000202080FFF75EFEC60700F1D4
:103E90008A8015B1450700F1AA8000212046FFF76E
:103EA000E1FE022800F08280042800F0AE800128A4
:103EB00098BF002574D8B4F83F30B3F5007F6FD1B8
:103EC000B4F84A1001B9A16D94F84420E161531E81
:103ED000012BA27064D894F841306381002B5FD02D
:103EE000581E18425CD1B4F845702781380757D165
:103EF000B4F8470000B9606DB4F842C0BCF1000FDF
:103F00004ED001FB02F20CEB17161644B04247D319
:103F1000801B9842B0FBF3FE42D30CEB05034FF637
:103F2000F57CE6452E440EF1020040F28C8063627F
:103F3000B4F85E30E6623B43A061256230D1830075
:103F400003F2FF13226EA262B1EB532F28D3B4F811
:103F500064204FF0FF338021012AC4E9043321712A
:103F600000F0968003255C495C4A25700B88106838
:103F700001339BB2A0420B80E38004BF0023136097
:103F800013699C427FF47CAF0023136178E7D4F877
:103F90002A52002E46D1B8F1000F4CD1CFBB5DBBE9
:103FA0000D20BDE8F0810320BDE8F08194F8F661B2
:103FB0000EB1D4F8FA6194F8063243B3D4F80A8209
:103FC00094F816720FB1D4F81A7294F82652002D94
:103FD000DDD13EBBB8F1000F2CD1002FE0D0394627
:103FE0002046FFF73FFE0128DAD83D4663E70A2066
:103FF000BDE8F0810C20D4E729462046FFF732FEC9
:1040000001287FF658AF0428CAD10120C9E7984695
:10401000D6E739462046FFF725FE0128E5D9002DD1
:10402000BED0E9E731462046FFF71CFE0128B2D892
:10403000354640E7354641462046FFF713FE012846
:10404000ACD8454637E740F6F57CE6452562E662A2
:10405000A061636216D8002FA2D01A4400EB40037F
:1040600000F0010000EB5300012500F2FF10B1EB5E
:10407000502FA26294D34FF0FF338022C4E904335F
:10408000227170E7002F8BD01A4440000225ECE724
:10409000691C2046FFF784FE00287FF463AFB4F864
:1040A000321220714AF6552291427FF45BAF626B67
:1040B0000B4B9A427FF456AF03F1FF53D4F818220A
:1040C00003F5005320339A4204BFD4E98732C4E990
:1040D000042347E7340500203005002010050020A8
:1040E000525261412DE9F84390F80090B9F1020F66
:1040F00005460E46144608D0B9F1030F42D0B9F177
:10410000010F14D00220BDE8F883416A01EB1621AB
:10411000FFF746FE0028F6D1760005F1340306F4D9
:10412000FF769A199C55C4F3072454703DE0416A08
:1041300006EB560801EB5821FFF732FE0028E2D1CA
:1041400008F10107F207C8F308034FEA572105F108
:1041500034082FD518F8032002F00F0242EA0412A7
:1041600008F803206B6A85F8039019442846FFF786
:1041700017FE0028C7D1C7F308024244C4F307134F
:10418000137012E0416A01EBD611FFF709FE002817
:10419000B9D1B60005F1340206F4FE7624F070447D
:1041A000935903F07043234393510123EB70002094
:1041B000BDE8F88308F803406B6A85F8039019445A
:1041C0002846FFF7EDFD00289DD1C7F30807C4F38B
:1041D000032418F8073008EB070223F00F032343EA
:1041E0001370E2E701290ED9F8B5836999420C46AC
:1041F000054606D20378022B21D0032B10D0012BC9
:1042000003D00120F8BD01207047416A04EB540738
:1042100001EB5721FFF7C4FDF0B14FF0FF30F8BDBF
:10422000416A01EBD411FFF7BBFD0028F5D1A400D2
:1042300004F4FE742544686B20F07040F8BD416AB8
:1042400001EB1421FFF7ACFD0028E6D1630003F475
:10425000FF732B44988EF8BDC7F30803696A2B449B
:10426000013701EB5721284693F83460FFF798FD9A
:104270000028D2D1C7F308072F4497F8343046EA14
:104280000320E3074CBF0009C0F30B00F8BD00BFDB
:104290002DE9F84FD0F8008007468946002940F004
:1042A0008580D8F81060D8F8183086B19E420ED2BA
:1042B000741C9C42C0F09080012E0AD03D680224FC
:1042C000AB69A34209D801242046BDE8F88F022B30
:1042D0007ED800242046BDE8F88F2B78022B2AD008
:1042E000032B48D0012BEED1696A04EB540A01EB91
:1042F0005A212846FFF754FDC0BBCAF30803696A78
:104300002B440AF1010A01EB5A21284693F834B0F4
:10431000FFF746FD50BBCAF3080AAA449AF83430A6
:104320004BEA032BE3075FD55FEA1B1B10D0BBF101
:10433000010F32D1C7E7696A284601EB1421FFF764
:104340002FFD98B9630003F4FF732B449B8E13BBBE
:10435000D8F81830A342B6D94FF0FF322146404674
:10436000FFF7C0FE002844D00128ACD14FF0FF3445
:104370002046BDE8F88F696A284601EBD411FFF7A3
:104380000FFD0028F2D1A30003F4FE732B445B6BF6
:1043900033F07043DCD0012B95D0A64299D0D8F8E9
:1043A000183001349C4287D23D6889E74046FFF7C8
:1043B00019FF0128044686D9421CD7D0D8F81830F6
:1043C000834281D809F10104A34207D84E4673E71E
:1043D0003D680126022473E7454671E7012C3D68DC
:1043E0007FF671AF4E466BE7CBF30B03002BD2D1B8
:1043F000AEE7B9F1000F0FD0B9F1010F3FF463AF91
:10440000D8F818309945BFF45EAF22464946404679
:10441000FFF768FE0028A7D1D8E90523023B9A429E
:10442000C8F8104002D8013AC8F8142098F80430AF
:1044300043F0010388F8043046E700BFB1F5001FE0
:104440002DE9F84FD0F800902BD2CA060C4628D19F
:104450008568416107463DB3B9F80A30B4EB432F94
:104460004FEA4328C0F08780012D1AD04E46B36929
:10447000AB4216D93378022B4CD0032B2FD0012B13
:104480000FD1716A05EB550A01EB5A213046FFF74F
:1044900087FC002852D00120BDE8F88F0023C7E92F
:1044A00006530220BDE8F88F99F80030022B3FD860
:1044B000B9F80830B3EB541FF3D9D9F82830C7E95D
:1044C0000653002BEDD009F13409C4F3080103EBC6
:1044D00054234944C7E907310020BDE8F88F716AC9
:1044E000304601EBD511FFF75BFC0028D3D1AB00C0
:1044F00003F4FE7333445D6B25F07045012DD0D974
:10450000D9F81830AB42CCD9A4EB0804A04534D874
:104510003E68ACE7716A304601EB1521FFF740FCBD
:104520000028B8D16B0003F4FF7333449D8EE5E798
:10453000D9F82830002BBBD01D468DE7CAF30803FD
:10454000716A33440AF1010A01EB5A21304693F8AB
:1045500034B0FFF725FC00289DD1CAF3080AB24405
:104560009AF834304BEA032BEB074CBF4FEA1B158C
:10457000CBF30B05C2E7D9F81830023BAA1E9A42CA
:104580008CD2B9F80A10D9F82C3002FB013396E727
:104590002DE9F04F002187B005680446FFF74EFF74
:1045A0008046F8B94FF0FF0C4FF0FF37D4F81C905D
:1045B0002763E04605F13406CDF804C0D5F830A0F5
:1045C000CA4515D0EB786878002B40F0B480012301
:1045D0004A463146FFF7C8FA40B14FF0FF332B632C
:1045E0004FF00108404607B0BDE8F08FC5F83090A5
:1045F000226A1178002941D0D37AE52903F03F00DF
:10460000A07103D01B073FD50F287FD027634FF041
:10461000FF086369D4F81C9022682033B9F1000FB9
:104620002CD0B3F5001F29D2C3F3080BBBF1000F48
:1046300009D1A16909F10109C4F81C9041B9118996
:10464000B1EB531F18D934325A4463612262B5E783
:104650005089013810EA5320F5D110460393029295
:10466000FFF7C0FD012840F22481431CB8D0029A14
:1046700091698842C0F0D3800023E3614FF00408C1
:10468000404607B0BDE8F08F0F283FD0B8F1000FCB
:1046900075D094F82F8018F00108B7D1117894F8EC
:1046A00024309942B2D194F8251053789942ADD173
:1046B00094F8261093789942A8D1D17894F82730AD
:1046C0009942A3D1117994F8283099429ED1517919
:1046D00094F82930994299D1917994F82A309942E5
:1046E00094D1D17994F82B3099428FD1117A94F8E2
:1046F0002C3099428AD1517A94F82D30994285D143
:10470000927A94F82E309A4280D16BE794F82F3049
:104710005B063FF57EAF48067CD5507B6369019010
:1047200001F0BF012363537B0198834200F087802F
:104730004FF0FF086DE7012352463146FFF722FA9A
:1047400000287FF44DAF6B6AE870AAEB0301EB69B8
:10475000994212D295F802B0BBF1010F01D80CE0DA
:10476000EB6968789A445246012331460BF1FF3BCE
:10477000FFF708FABBF1010FF2D1687827E7137849
:104780005078D90141EA53010144C1F346039078BE
:1047900043EAC11350FA83F3C3F34601D07841EAE8
:1047A000C31150FA81F1C1F34603107943EAC113F2
:1047B00050FA83F3C3F34601507941EAC31150FA2A
:1047C00081F1C1F34603907943EAC11350FA83F3B0
:1047D000C3F34601D07941EAC31150FA81F1C1F324
:1047E0004603107A43EAC11350FA83F3C3F3460138
:1047F000507A41EAC31150FA81F1C1F34603907A2D
:1048000043EAC11350FA83F30199DBB299427FF472
:1048100040AFE7E6884586D04FF0FF08F9E6023959
:10482000A061023888423CBFB2F80AC0D16A039B3B
:1048300034BF00FB0C19D946C4F81C9003E7538B16
:10484000002B7FF475AF92F80080DFF8909003940E
:1048500008F03F0808F1FF3808EB4803D5F80CA032
:10486000029508EB830809F10D0B01200591144610
:10487000049611E0B8F1FE0F284616D802F08AF827
:1048800006463AF8180002F085F8864208F1010859
:104890000BD12846D9450FD019F8013BE55A00281D
:1048A000E8D14FF6FF739D42F4D0DDE90254049E37
:1048B0003EE74FF0020895E62246029D13780599DF
:1048C0005A06DDE9034605D520B13AF81830002B29
:1048D0007FF42EAF01395FFA81F89AE64876000836
:1048E0002DE9F04FD0F800E083B00746894611F873
:1048F000013B2F2BFAD05C2BF8D00021B96099F83E
:1049000000001F2840F228817346F0461F28DD680A
:1049100042D9A5F1020BCA465E46012409E026F8F9
:10492000020F1AF8010F1F2804F1010340F2FE8064
:104930001C462F2817D05C2815D0B4F5807F0ED0E8
:10494000012102F00DF850B17F28E8D8924A2223C5
:1049500003E012F8013F002BE1D09842F9D1062084
:1049600003B0BDE8F08F09EB04031A782F2A9946AB
:1049700003F10103F9D05C2AF7D0013C00F00A8171
:104980004FF0000A05EB440232F8023D202B01D023
:104990002E2B04D1013CF7D100222A80DFE74FF013
:1049A0002032002325F8143042F220017A62BA62E4
:1049B0002022B98587F82E2000E001333BF8020F52
:1049C0002028FAD02E28F8D00BB14AF0030A05EBC4
:1049D000440201E0013C03D032F8021D2E29F9D136
:1049E0005E1CA8B300224FF0080B1346202852D0BB
:1049F0002E2859D05B4568D3BBF10B0F59D0B44278
:104A000000F08D804AF0030AB44280F0888097F865
:104A10002430E52B04BF052387F82430BBF1080FB1
:104A200005BF9300DAB202F00C0303F00C030C2B69
:104A300062D002F00302032A5ED01AF0020F07D1FF
:104A4000012A08BF4AF0100A042B08BF4AF0080ADE
:104A500087F82FA03846FFF79BFD97F82F300028E6
:104A600055D15A073FF57CAFBB79DB0640F18E800C
:104A70007A6998F80010C2F3080208F1340313446D
:104A800003295A8B04BF9B8A42EA0342BA603B68FF
:104A900099F800003AE74AF0030A314635F8110068
:104AA0004E1C0028A2D1B2E7B442F4D1BBF10B0FE7
:104AB000AAD197F82430E52B02D1052387F82430BA
:104AC0004AF0030A02F00C03B1E7B442EED07F28AB
:104AD00030D8DFF8CCC02B2103E01CF8011F0029DF
:104AE00043D08142F9D14AF0030A5F203146FE18D3
:104AF000013386F82400D1E74AF0020A87F82FA094
:104B00003846FFF745FD97F82F300028A9D0042834
:104B10007FF426AF13F0040F08BF052020E79200B2
:104B2000D2B221464FF00B0B0823B7E799444FF060
:104B3000040A27E70021CDE9002301F011FF4AF024
:104B4000020ADDE900230028CDD01449084410F8FA
:104B5000800C0028C7D0BCE78023384687F82F3068
:104B600003B0BDE8F04FFFF769BCA0F1410119297E
:104B700003D842F00202C0B2B8E7A0F161011929DE
:104B80009CBF203842F00102C0B2AFE7052003B05D
:104B9000BDE8F08F2C80E2E6007600085876000829
:104BA0000C7600082DE9F04FC369456985B0019086
:104BB000002B44D02035B5F5001F40D2C5F30808BE
:104BC00007680246B8F1000F09D007F13406134612
:104BD00046445D611E62002005B0BDE8F08F0E46C0
:104BE00081690133C36119B3B7F80A9009F1FF393C
:104BF00019EA5529E9D13846FFF7F4FA0128824627
:104C00001FD9B0F1FF3F1ED0BB6983421DD907F108
:104C10003406841E019A023BA342C2F818A003D9AD
:104C20007A89FB6A04FB0239019BC3F81C90CFE729
:104C30003B89B3EB551FC8D8019A0023D3610420E8
:104C4000CAE70220C8E70120C6E7002EF4D0019B86
:104C500099691846FFF71CFB8246002856D00128A8
:104C6000EFD0B0F1FF3FEED0FB7807F13406002B18
:104C70004ED14FF400720021304602F008FBBB69B0
:104C80007889AAF102049A1E944266D2FA6A04FB59
:104C900000223A63002862D0CDE902844FF0000B75
:104CA00014464FF00103FB70787801232246314609
:104CB000FEF768FF0028C6D17B6AF870E11AFB692D
:104CC000994212D297F80280B8F1010F01D80CE096
:104CD000FB6978781C442246012308F1FF383146ED
:104CE000FEF750FFB8F1010FF2D13A6B7B890BF15F
:104CF000010B541C5B453C63D3D82246DDF8088089
:104D0000039CBB69A2EB0B023A6383E7072063E7CE
:104D10003A6B7878029201233146FEF733FF002880
:104D200091D17B6A029AF870D11AFB699942A0D29C
:104D300097F802B0BBF1010F9BD9144600E0FB6964
:104D400078781C44224601230BF1FF3B3146FEF7E5
:104D500019FFBBF1010FF2D18BE7002299E78346DF
:104D6000D0E700BF2DE9F04F90F82FB01BF0A00165
:104D70008DB040F0FB8203680393DB681A88064617
:104D8000002A00F034848A461A4632F8021F0AF1DB
:104D9000010A0029F9D106F1240595E807000CACB9
:104DA0001BF0010F04E9070032D11BF00205039C40
:104DB00000F0DE81D2490AF10C02A1FB021230465A
:104DC00000219508FFF73AFB05F1010B0146002889
:104DD00040F0D881804604F1340A0195F769256BCB
:104DE000AF4200F07381E3786078002B40F0868258
:104DF00001233A465146FEF7B7FE002800F06581D0
:104E00004FF0FF332363012108460DB0BDE8F08F5A
:104E1000402286F82F20BDF82C20CDF810B09DF848
:104E20002E80B84CDDF80CB00190CDF814A00291A2
:104E30004FF00109202792461846019B7362B9F191
:104E4000050F029BB362A6F82CA086F82E8040F2D4
:104E500030810288CC46002A00F0938002F0010ED7
:104E60000EEB4C0E51081CF4004F18BF8EEA040ED6
:104E700001F0010101EB4E0193081EF4004F18BF31
:104E8000614003F0010303EB41034FEAD20C090434
:104E900048BF63400CF0010C0CEB430C11091B04E0
:104EA00048BF8CEA040C01F0010101EB4C015309ED
:104EB0001CF4004F18BF614003F0010303EB4103F2
:104EC0004FEA921C090448BF63400CF0010C0CEB44
:104ED000430CD1091B0448BF8CEA040C01F001010A
:104EE00001EB4C01130A1CF4004F18BF614003F0A2
:104EF000010303EB41034FEA522C090448BF63400E
:104F00000CF0010C0CEB430C910A1B0448BF8CEA1B
:104F1000040C01F0010101EB4C01D30A1CF4004F19
:104F200018BF614003F0010303EB41034FEA123C59
:104F3000090448BF63400CF0010C0CEB430C510B0F
:104F40001B0448BF8CEA040C01F0010101EB4C0189
:104F5000930B1CF4004F18BF614003F0010303EBF7
:104F600041034FEAD23C0A0448BF634030F8022FA5
:104F70000CEB430C1B0448BF8CEA040C002A7FF4A2
:104F80006DAF0CF00F0303F1300EBEF1390F88BF87
:104F900003F1370EBCF10F0F8DF823E04FEA1C121E
:104FA00040F28D8002F00F0101F13003392B88BFF0
:104FB00001F137030F2A8DF822304FEA1C2140F20D
:104FC0008B8101F00F0202F13003392B88BF02F10F
:104FD00037030F298DF821304FEA1C3240F28281CD
:104FE00002F00F0101F13003392B88BF01F13703C3
:104FF0000F2A8DF820304FEA1C4140F2798101F0F0
:105000000F0202F13003392B88BF02F137030F2959
:105010008DF81F304FEA1C5240F2938102F00F01CD
:1050200001F13003392B88BF01F137030F2A8DF8C6
:105030001E304FEA1C6340F28A8103F00F0101F138
:105040003002392A88BF01F137020F2B8DF81D205D
:1050500040F283814FF0FF3C06F12301002201E082
:10506000944551D011F8010F2028134602F1010296
:10507000F6D1BCF1070F4BD9581C0728EF540AD8BA
:10508000431C082BC0F108024FF0200188BF012209
:10509000284402F0FCF83046FFF77AFA014600286F
:1050A0005AD109F10109B9F1640F24D0DBF80C00E1
:1050B000C3E609F1300E5FFA8EFE8DF823E07E2301
:1050C0008DF822304FF0060CC6E72763336A1B7851
:1050D000E52B00F0CD80002B00F0CA804FF00008D7
:1050E00001213046FFF75EFD00283FF477AE04282B
:1050F00001467FF489AE072108460DB0BDE8F08F68
:105100004FECC44E21100100BCF1070F6346B3D829
:105110000CF130026A4412F8142CEA545A1C072A83
:10512000B9D80CF1010C0CF130016944062B11F8CF
:10513000141CA9540CF1010203F10201ABD0082A9E
:1051400026D1052B6F5403F1030099D13046FFF7A8
:105150001FFA01460028A4D00428DDE904BA7FF430
:1051600053AE1BF00205346886F82FB07FF422AEF0
:1051700000213046FFF762F94FF0010B014600288D
:105180003FF428AE0428B6D008460DB0BDE8F08F35
:1051900030326A44052B12F8142C6A540CF10202C6
:1051A00003F103013FF477AF082A06D1042B6F54B3
:1051B00003F104007FF464AF6DE730326A44042BDE
:1051C00012F8142C6A540CF1030203F104013FF4A9
:1051D00062AF082A06D1032B6F5403F105007FF458
:1051E0004FAF58E730326A44032B12F8142C6A543C
:1051F0000CF1040203F105013FF44DAF082A06D17A
:10520000022B6F5403F106007FF43AAF43E73032CC
:105210006A44022B12F8142C6A540CF1050203F1B3
:1052200006013FF438AF082A06D1012B6F5403F171
:1052300007007FF425AF2EE730326A44012B12F8C5
:10524000142C6A5403F107023FF425AFBCF1010F9F
:1052500006D00133AF5408BF07203FF411AF1AE75F
:1052600005F802E0002B3FF416AF86F82B7012E72A
:1052700008F10108C3457FF433AF019D002D7AD1B9
:10528000F1690398FEF78CFD014600287FF4BCAD60
:1052900020220190306A01F0FAFF326A019906F18A
:1052A0002500101A022840F2A581706A1060B06AC9
:1052B000506096F82C00107296F82D00507296F8F7
:1052C0002E00907296F82F20306A02F018030373B4
:1052D000039B0122DA7097E57E238DF821304FF091
:1052E000050CB9E67E238DF820304FF0040CB3E6B0
:1052F0007E238DF81F304FF0030CADE601232A46C4
:105300005146FEF73FFC00287FF47DAD636AE070F4
:10531000E91AE369994212D294F80290B9F1010FA7
:1053200001D80CE0E36960781D442A46012309F1A5
:10533000FF395146FEF726FCB9F1010FF2D1607832
:1053400056E57E238DF81E304FF0020C84E67E2356
:105350008DF81D304FF0010C7EE67E2301228DF882
:105360001C3086F8243094460023DCE606210846EB
:105370000DB0BDE8F08F71693046A1EB4511FFF724
:105380005DF8014600287FF43FAD96F82410DDF863
:105390000CA0CA0142EA510296F825100A44C2F351
:1053A000460141EAC21196F8262052FA81F1C1F372
:1053B000460242EAC11296F8271051FA82F2C2F36D
:1053C000460141EAC21196F8282052FA81F1C1F350
:1053D000460242EAC11296F8291051FA82F2C2F34B
:1053E000460141EAC21196F82A2052FA81F1C1F32E
:1053F000460242EAC11296F82B1051FA82F2C2F329
:10540000460141EAC21196F82C2052FA81F1C1F30B
:10541000460242EAC11296F82D1051FA82F2C2F306
:10542000460747EAC21796F82E2052FA87F7FFB2CE
:105430004FF00F084FF6FD744FF6FF7929E0A3F8FF
:105440000390A3F80590A3F80790A3F80990A3F898
:105450000E90A3F81090A3F81290A3F81490A3F85C
:105460001690A3F81890A3F81C90A3F81E904CF087
:10547000400C83F800C0012300218AF80330304635
:10548000FFF790FB014600287FF4BEAC013D3FF4DE
:10549000F7AEF1695046FEF783FC864601460028C8
:1054A0007FF4B2AC5FFA85FC0CF1FF32336ADAF8B4
:1054B0000C00A3F81AE002EB420102EB81025F73D9
:1054C000A3F80B8030F81210597001F1FF3E090A61
:1054D00099701FFA8EF1A1424FEA420EAFD8511CCB
:1054E0004A0030F81110D97001F1FF3B1FFA8BFB15
:1054F000090AA3451971A4D802445188597101F1D0
:10550000FF3B1FFA8BFB090AA34599719BD8918831
:10551000D97101F1FF3B1FFA8BFB090AA3451972F0
:1055200093D8D188597201F1FF3B1FFA8BFB090A0E
:10553000A34599728BD81189997301F1FF3B1FFA2A
:105540008BFB090AA345D97383D85189197401F1DA
:10555000FF3B1FFA8BFB090AA34559743FF67BAF4B
:105560009189997401F1FF3B1FFA8BFB090AA3454E
:10557000D9743FF672AFD189197501F1FF3B1FFA5B
:105580008BFB090AA34559753FF669AF118A9975D6
:1055900001F1FF3B1FFA8BFB090AA345D9753FF6C2
:1055A00060AF518A197601F1FF3B1FFA8BFB090AA4
:1055B000A34559763FF657AF918A197701F1FF3B22
:1055C0001FFA8BFB090AA34559773FF64EAFD28AE3
:1055D0009A77511E120ADA778AB2A2423FF647AF93
:1055E00000EB0E02528B002A7FF443AF3FE7924656
:1055F000FFF7D1BB96F82400107096F82500507084
:1056000096F82600907096F82700D07096F828003B
:10561000107196F82900507196F82A00907196F84A
:105620002B00D07145E600BF2DE9F04F0129056838
:1056300083B00C460AD9AB698B4207D9064611469E
:1056400042B92F464FF001089C4211D3022003B00B
:10565000BDE8F08F012AF9D09342F7D94FF0FF321D
:105660002846FEF73FFD0028F1D13768BB69E9E71E
:105670003B78022B00F09480032B10D0012BE5D156
:10568000796A04EB540901EB59213846FEF788FB8F
:10569000002800F0AE80012003B0BDE8F08F796AE9
:1056A000384601EBD411FEF77BFB0028F3D1A300B1
:1056B00003F4FE733B44D3F8349039F0704900F0A2
:1056C000B580B9F1010FC1D0AB699C42BED22F7831
:1056D000022F2DD0032F4BD0012FB7D1696A04EBD5
:1056E000540A01EB5A212846FEF75AFB0028AED196
:1056F0000AF1010BE107CAF3080A05F134034FEA86
:105700005B2261D403F80A00696AEF7011442846ED
:105710000193FEF745FB002899D1019BCBF30802CA
:1057200003EB020B985C00F0F0008BF800000CE03B
:10573000696A284601EB1421FEF732FB002886D166
:10574000640004F4FF742C44A086AA696B6985F890
:105750000380911E8B4205D201336B612B7943F09C
:1057600001032B714A4561D937684C46BB696BE729
:10577000696A284601EBD411FEF712FB03460028A4
:105780007FF465AFA40004F4FE7405F13401081938
:105790000A590B538370130E03F0F003C370D4E760
:1057A000796A384601EB1421FEF7FAFA00287FF4F3
:1057B00072AF630003F4FF733B44B3F83490B9F164
:1057C000000F7FF47EAF31E013F80A10019301F06F
:1057D0000F0103F80A10696AEF7011442846FEF7BA
:1057E000DFFA019B00287FF432AFCBF3080B9B4418
:1057F0009BE7C9F30803796A3B4409F1010901EB0E
:105800005921384693F834A0FEF7CAFA00287FF4ED
:1058100042AFC9F30809B944E00799F834304AEABD
:10582000032905D55FEA19197FF44BAF00200EE775
:10583000C9F30B09B9F1000F7FF443AFF6E700BFDE
:1058400010B582B0CDE9001099B191F800C0BCF15B
:105850001F0F11D96346084603E010F8013F1F2BC4
:105860000AD93A2BF9D1BCF1300F02D1013188426B
:1058700002D00B2002B010BD11490B6863B1114872
:105880000468A34204BF0024046004699C4204BF6E
:105890000024046100201870019B73B10020012ACC
:1058A00018700B6002D0002002B010BD024601A9A2
:1058B0006846FEF7B5FA02B010BD0B60F3E700BF13
:1058C00034050020100500202DE9F047ADF5107DCE
:1058D0000191002800F0888002F03F071646044638
:1058E0003A4602A901A8FEF79BFA054630B100230B
:1058F000236028460DF5107DBDE8F087DDE901182D
:1059000010ABC8F80C3003A8CDF80C80FEF7E8FF08
:10591000A8B99DF93B30002B6CDBA24B039A1968A8
:1059200006F03E0C002900F0D280914264D0196943
:10593000002969D08A4200F0E8801225D7E716F0E6
:105940001C0F4FD004284DD1964B1A68002A44D022
:105950001B69002BF1D103A8FFF704FA03460028C6
:1059600040F0F68047F0080701F0CAF8DDF82C9007
:105970002023C9F80E00C9F8160089F80B3098F8F2
:105980000030B9F81A60032B04BFB9F8143046EAA6
:1059900003460023A9F81A3098F80020032A08BF0C
:1059A000A9F8143000220123C9F81C2088F803301C
:1059B000002E40F0B98047F04007D8F83030012F72
:1059C000C4E9093903A894BF00210121FEF7F4F8C6
:1059D000206100283AD1022589E703A8FFF7C2F920
:1059E0000028BFD0054682E7092528460DF5107D21
:1059F000BDE8F08706257AE7059A5868904200F0DE
:105A000086801A69002A95D116F01C0F08D09DF8DF
:105A1000123013F0110F10D1730710D5082566E767
:105A20009DF81230D8060FD4B20701D5DB0704D495
:105A30003007DDF82C90C0D5BDE7072557E73607BE
:105A4000DDF82C90B9D58FE7042550E798F80030A1
:105A5000B9F81A60032B04BFB9F8143046EA0346BC
:105A6000A660D9F81C90B8F80630C4F80C90002154
:105A700004F1300A4FF40072C4F80080A380277547
:105A8000E16261752162A161504601F000FCBA0635
:105A90007FF52FAFB9F1000F3FF42BAFB8F80A3004
:105AA000C4F81890B9EB432F4FEA432704D851E0CC
:105AB000431C75D04F454DD231462068FEF792FB0E
:105AC00001280646A9EB0709F2D8E06183E71969C6
:105AD000002999D08A4297D10122596905988142BB
